{
  "contractName": "BTEMSale",
  "abi": [
    {
      "inputs": [
        {
          "internalType": "uint256",
          "name": "rate_",
          "type": "uint256"
        },
        {
          "internalType": "address payable",
          "name": "wallet_",
          "type": "address"
        },
        {
          "internalType": "contract IERC20",
          "name": "token_",
          "type": "address"
        },
        {
          "internalType": "uint256",
          "name": "openingTime_",
          "type": "uint256"
        },
        {
          "internalType": "uint256",
          "name": "closingTime_",
          "type": "uint256"
        },
        {
          "internalType": "uint256",
          "name": "cap_",
          "type": "uint256"
        }
      ],
      "stateMutability": "nonpayable",
      "type": "constructor"
    },
    {
      "anonymous": false,
      "inputs": [
        {
          "indexed": true,
          "internalType": "address",
          "name": "previousOwner",
          "type": "address"
        },
        {
          "indexed": true,
          "internalType": "address",
          "name": "newOwner",
          "type": "address"
        }
      ],
      "name": "OwnershipTransferred",
      "type": "event"
    },
    {
      "anonymous": false,
      "inputs": [
        {
          "indexed": false,
          "internalType": "uint256",
          "name": "prevClosingTime",
          "type": "uint256"
        },
        {
          "indexed": false,
          "internalType": "uint256",
          "name": "newClosingTime",
          "type": "uint256"
        }
      ],
      "name": "TimedCrowdsaleExtended",
      "type": "event"
    },
    {
      "anonymous": false,
      "inputs": [
        {
          "indexed": true,
          "internalType": "address",
          "name": "purchaser",
          "type": "address"
        },
        {
          "indexed": true,
          "internalType": "address",
          "name": "beneficiary",
          "type": "address"
        },
        {
          "indexed": false,
          "internalType": "uint256",
          "name": "value",
          "type": "uint256"
        },
        {
          "indexed": false,
          "internalType": "uint256",
          "name": "amount",
          "type": "uint256"
        }
      ],
      "name": "TokensPurchased",
      "type": "event"
    },
    {
      "anonymous": false,
      "inputs": [
        {
          "indexed": true,
          "internalType": "address",
          "name": "account",
          "type": "address"
        }
      ],
      "name": "WhitelistedAdded",
      "type": "event"
    },
    {
      "anonymous": false,
      "inputs": [
        {
          "indexed": true,
          "internalType": "address",
          "name": "account",
          "type": "address"
        }
      ],
      "name": "WhitelistedRemoved",
      "type": "event"
    },
    {
      "stateMutability": "payable",
      "type": "fallback"
    },
    {
      "inputs": [
        {
          "internalType": "address",
          "name": "account",
          "type": "address"
        }
      ],
      "name": "addWhitelisted",
      "outputs": [],
      "stateMutability": "nonpayable",
      "type": "function"
    },
    {
      "inputs": [
        {
          "internalType": "address",
          "name": "beneficiary",
          "type": "address"
        }
      ],
      "name": "buyTokens",
      "outputs": [],
      "stateMutability": "payable",
      "type": "function"
    },
    {
      "inputs": [],
      "name": "cap",
      "outputs": [
        {
          "internalType": "uint256",
          "name": "",
          "type": "uint256"
        }
      ],
      "stateMutability": "view",
      "type": "function"
    },
    {
      "inputs": [],
      "name": "capReached",
      "outputs": [
        {
          "internalType": "bool",
          "name": "",
          "type": "bool"
        }
      ],
      "stateMutability": "view",
      "type": "function"
    },
    {
      "inputs": [],
      "name": "closingTime",
      "outputs": [
        {
          "internalType": "uint256",
          "name": "",
          "type": "uint256"
        }
      ],
      "stateMutability": "view",
      "type": "function"
    },
    {
      "inputs": [],
      "name": "hasClosed",
      "outputs": [
        {
          "internalType": "bool",
          "name": "",
          "type": "bool"
        }
      ],
      "stateMutability": "view",
      "type": "function"
    },
    {
      "inputs": [],
      "name": "isOpen",
      "outputs": [
        {
          "internalType": "bool",
          "name": "",
          "type": "bool"
        }
      ],
      "stateMutability": "view",
      "type": "function"
    },
    {
      "inputs": [
        {
          "internalType": "address",
          "name": "account",
          "type": "address"
        }
      ],
      "name": "isWhitelisted",
      "outputs": [
        {
          "internalType": "bool",
          "name": "",
          "type": "bool"
        }
      ],
      "stateMutability": "view",
      "type": "function"
    },
    {
      "inputs": [],
      "name": "maxContrib",
      "outputs": [
        {
          "internalType": "uint256",
          "name": "",
          "type": "uint256"
        }
      ],
      "stateMutability": "view",
      "type": "function"
    },
    {
      "inputs": [],
      "name": "minContrib",
      "outputs": [
        {
          "internalType": "uint256",
          "name": "",
          "type": "uint256"
        }
      ],
      "stateMutability": "view",
      "type": "function"
    },
    {
      "inputs": [],
      "name": "openingTime",
      "outputs": [
        {
          "internalType": "uint256",
          "name": "",
          "type": "uint256"
        }
      ],
      "stateMutability": "view",
      "type": "function"
    },
    {
      "inputs": [],
      "name": "owner",
      "outputs": [
        {
          "internalType": "address",
          "name": "",
          "type": "address"
        }
      ],
      "stateMutability": "view",
      "type": "function"
    },
    {
      "inputs": [],
      "name": "paused",
      "outputs": [
        {
          "internalType": "bool",
          "name": "",
          "type": "bool"
        }
      ],
      "stateMutability": "view",
      "type": "function"
    },
    {
      "inputs": [],
      "name": "rate",
      "outputs": [
        {
          "internalType": "uint256",
          "name": "",
          "type": "uint256"
        }
      ],
      "stateMutability": "view",
      "type": "function"
    },
    {
      "inputs": [
        {
          "internalType": "address",
          "name": "account",
          "type": "address"
        }
      ],
      "name": "removeWhitelisted",
      "outputs": [],
      "stateMutability": "nonpayable",
      "type": "function"
    },
    {
      "inputs": [],
      "name": "renounceOwnership",
      "outputs": [],
      "stateMutability": "nonpayable",
      "type": "function"
    },
    {
      "inputs": [],
      "name": "renounceWhitelisted",
      "outputs": [],
      "stateMutability": "nonpayable",
      "type": "function"
    },
    {
      "inputs": [],
      "name": "token",
      "outputs": [
        {
          "internalType": "contract IERC20",
          "name": "",
          "type": "address"
        }
      ],
      "stateMutability": "view",
      "type": "function"
    },
    {
      "inputs": [
        {
          "internalType": "address",
          "name": "newOwner",
          "type": "address"
        }
      ],
      "name": "transferOwnership",
      "outputs": [],
      "stateMutability": "nonpayable",
      "type": "function"
    },
    {
      "inputs": [],
      "name": "wallet",
      "outputs": [
        {
          "internalType": "address payable",
          "name": "",
          "type": "address"
        }
      ],
      "stateMutability": "view",
      "type": "function"
    },
    {
      "inputs": [],
      "name": "weiRaised",
      "outputs": [
        {
          "internalType": "uint256",
          "name": "",
          "type": "uint256"
        }
      ],
      "stateMutability": "view",
      "type": "function"
    },
    {
      "inputs": [],
      "name": "pauseSale",
      "outputs": [],
      "stateMutability": "nonpayable",
      "type": "function"
    },
    {
      "inputs": [],
      "name": "unpauseSale",
      "outputs": [],
      "stateMutability": "nonpayable",
      "type": "function"
    },
    {
      "inputs": [
        {
          "internalType": "uint256",
          "name": "amount",
          "type": "uint256"
        }
      ],
      "name": "setMinContrib",
      "outputs": [],
      "stateMutability": "nonpayable",
      "type": "function"
    },
    {
      "inputs": [
        {
          "internalType": "uint256",
          "name": "amount",
          "type": "uint256"
        }
      ],
      "name": "setMaxContrib",
      "outputs": [],
      "stateMutability": "nonpayable",
      "type": "function"
    }
  ],
  "bytecode": "0x6080604052681043561a8829300000600b5568a2a15d09519be00000600c553480156200002b57600080fd5b5060405162002aa838038062002aa88339818101604052810190620000519190620004aa565b828282888888600160008190555060008311620000a5576040517f08c379a00000000000000000000000000000000000000000000000000000000081526004016200009c90620007ec565b60405180910390fd5b600073ffffffffffffffffffffffffffffffffffffffff168273ffffffffffffffffffffffffffffffffffffffff16141562000118576040517f08c379a00000000000000000000000000000000000000000000000000000000081526004016200010f906200080e565b60405180910390fd5b600073ffffffffffffffffffffffffffffffffffffffff168173ffffffffffffffffffffffffffffffffffffffff1614156200018b576040517f08c379a00000000000000000000000000000000000000000000000000000000081526004016200018290620007a8565b60405180910390fd5b8260038190555081600260006101000a81548173ffffffffffffffffffffffffffffffffffffffff021916908373ffffffffffffffffffffffffffffffffffffffff16021790555080600160006101000a81548173ffffffffffffffffffffffffffffffffffffffff021916908373ffffffffffffffffffffffffffffffffffffffff160217905550505050600081116200025d576040517f08c379a00000000000000000000000000000000000000000000000000000000081526004016200025490620007ca565b60405180910390fd5b806005819055505042821015620002ab576040517f08c379a0000000000000000000000000000000000000000000000000000000008152600401620002a29062000764565b60405180910390fd5b818111620002f0576040517f08c379a0000000000000000000000000000000000000000000000000000000008152600401620002e79062000786565b60405180910390fd5b81600681905550806007819055505050620003106200039760201b60201c565b600860006101000a81548173ffffffffffffffffffffffffffffffffffffffff021916908373ffffffffffffffffffffffffffffffffffffffff16021790555062000370620003646200039760201b60201c565b6200039f60201b60201c565b6000600a60146101000a81548160ff021916908315150217905550505050505050620008f5565b600033905090565b6000600a60009054906101000a900473ffffffffffffffffffffffffffffffffffffffff16905081600a60006101000a81548173ffffffffffffffffffffffffffffffffffffffff021916908373ffffffffffffffffffffffffffffffffffffffff1602179055508173ffffffffffffffffffffffffffffffffffffffff168173ffffffffffffffffffffffffffffffffffffffff167f8be0079c531659141344cd1fd0a4f28419497f9722a3daafe3b4186f6b6457e060405160405180910390a35050565b6000815190506200047681620008a7565b92915050565b6000815190506200048d81620008c1565b92915050565b600081519050620004a481620008db565b92915050565b60008060008060008060c08789031215620004c457600080fd5b6000620004d489828a0162000493565b9650506020620004e789828a0162000465565b9550506040620004fa89828a016200047c565b94505060606200050d89828a0162000493565b93505060806200052089828a0162000493565b92505060a06200053389828a0162000493565b9150509295509295509295565b60006200054f60338362000830565b91507f54696d656443726f776473616c653a206f70656e696e672074696d652069732060008301527f6265666f72652063757272656e742074696d65000000000000000000000000006020830152604082019050919050565b6000620005b760378362000830565b91507f54696d656443726f776473616c653a206f70656e696e672074696d652069732060008301527f6e6f74206265666f726520636c6f73696e672074696d650000000000000000006020830152604082019050919050565b60006200061f60248362000830565b91507f43726f776473616c653a20746f6b656e20697320746865207a65726f2061646460008301527f72657373000000000000000000000000000000000000000000000000000000006020830152604082019050919050565b60006200068760198362000830565b91507f43617070656443726f776473616c653a206361702069732030000000000000006000830152602082019050919050565b6000620006c960148362000830565b91507f43726f776473616c653a207261746520697320300000000000000000000000006000830152602082019050919050565b60006200070b60258362000830565b91507f43726f776473616c653a2077616c6c657420697320746865207a65726f20616460008301527f64726573730000000000000000000000000000000000000000000000000000006020830152604082019050919050565b600060208201905081810360008301526200077f8162000540565b9050919050565b60006020820190508181036000830152620007a181620005a8565b9050919050565b60006020820190508181036000830152620007c38162000610565b9050919050565b60006020820190508181036000830152620007e58162000678565b9050919050565b600060208201905081810360008301526200080781620006ba565b9050919050565b600060208201905081810360008301526200082981620006fc565b9050919050565b600082825260208201905092915050565b60006200084e826200087d565b9050919050565b600062000862826200087d565b9050919050565b6000620008768262000841565b9050919050565b600073ffffffffffffffffffffffffffffffffffffffff82169050919050565b6000819050919050565b620008b28162000855565b8114620008be57600080fd5b50565b620008cc8162000869565b8114620008d857600080fd5b50565b620008e6816200089d565b8114620008f257600080fd5b50565b6121a380620009056000396000f3fe60806040526004361061016a5760003560e01c806355367ba9116100d1578063d6cd94731161008a578063ec8ac4d811610064578063ec8ac4d8146104c0578063f2fde38b146104dc578063f651b8d114610505578063fc0c546a1461052e5761016b565b8063d6cd947314610455578063e3c107141461046c578063ebc33c51146104955761016b565b806355367ba91461038f5780635c975abb146103a6578063715018a6146103d15780638da5cb5b146103e8578063b7a8807c14610413578063bb33d7291461043e5761016b565b80634042b66f116101235780634042b66f1461028d57806347535d7b146102b857806348d21bdb146102e35780634b6753bc1461030e5780634f93594514610339578063521eb273146103645761016b565b806310154bad1461017d5780631515bc2b146101a6578063291d9549146101d15780632c4e722e146101fa578063355274ea146102255780633af32abf146102505761016b565b5b61017b610176610559565b610561565b005b34801561018957600080fd5b506101a4600480360381019061019f919061168f565b610687565b005b3480156101b257600080fd5b506101bb61072a565b6040516101c89190611cd9565b60405180910390f35b3480156101dd57600080fd5b506101f860048036038101906101f3919061168f565b610736565b005b34801561020657600080fd5b5061020f6107d9565b60405161021c9190611f11565b60405180910390f35b34801561023157600080fd5b5061023a6107e3565b6040516102479190611f11565b60405180910390f35b34801561025c57600080fd5b506102776004803603810190610272919061168f565b6107ed565b6040516102849190611cd9565b60405180910390f35b34801561029957600080fd5b506102a2610843565b6040516102af9190611f11565b60405180910390f35b3480156102c457600080fd5b506102cd61084d565b6040516102da9190611cd9565b60405180910390f35b3480156102ef57600080fd5b506102f8610868565b6040516103059190611f11565b60405180910390f35b34801561031a57600080fd5b5061032361086e565b6040516103309190611f11565b60405180910390f35b34801561034557600080fd5b5061034e610878565b60405161035b9190611cd9565b60405180910390f35b34801561037057600080fd5b5061037961088c565b6040516103869190611c95565b60405180910390f35b34801561039b57600080fd5b506103a46108b6565b005b3480156103b257600080fd5b506103bb61094f565b6040516103c89190611cd9565b60405180910390f35b3480156103dd57600080fd5b506103e6610962565b005b3480156103f457600080fd5b506103fd6109ea565b60405161040a9190611c7a565b60405180910390f35b34801561041f57600080fd5b50610428610a14565b6040516104359190611f11565b60405180910390f35b34801561044a57600080fd5b50610453610a1e565b005b34801561046157600080fd5b5061046a610ab7565b005b34801561047857600080fd5b50610493600480360381019061048e91906116e1565b610ac9565b005b3480156104a157600080fd5b506104aa610b98565b6040516104b79190611f11565b60405180910390f35b6104da60048036038101906104d5919061168f565b610561565b005b3480156104e857600080fd5b5061050360048036038101906104fe919061168f565b610b9e565b005b34801561051157600080fd5b5061052c600480360381019061052791906116e1565b610c96565b005b34801561053a57600080fd5b50610543610d65565b6040516105509190611cf4565b60405180910390f35b600033905090565b600260005414156105a7576040517f08c379a000000000000000000000000000000000000000000000000000000000815260040161059e90611ed1565b60405180910390fd5b600260008190555060003490506105be8282610d8f565b60006105c982610ecf565b90506105e082600454610eed90919063ffffffff16565b6004819055506105f08382610f03565b8273ffffffffffffffffffffffffffffffffffffffff1661060f610559565b73ffffffffffffffffffffffffffffffffffffffff167f6faf93231a456e552dbc9961f58d9713ee4f2e69d15f1975b050ef0911053a7b8484604051610656929190611f2c565b60405180910390a36106688383610f11565b610670610f15565b61067a8383610f80565b5050600160008190555050565b600860009054906101000a900473ffffffffffffffffffffffffffffffffffffffff1673ffffffffffffffffffffffffffffffffffffffff166106c8610559565b73ffffffffffffffffffffffffffffffffffffffff161461071e576040517f08c379a000000000000000000000000000000000000000000000000000000000815260040161071590611e11565b60405180910390fd5b61072781610f84565b50565b60006007544211905090565b600860009054906101000a900473ffffffffffffffffffffffffffffffffffffffff1673ffffffffffffffffffffffffffffffffffffffff16610777610559565b73ffffffffffffffffffffffffffffffffffffffff16146107cd576040517f08c379a00000000000000000000000000000000000000000000000000000000081526004016107c490611e11565b60405180910390fd5b6107d681611022565b50565b6000600354905090565b6000600554905090565b6000600960008373ffffffffffffffffffffffffffffffffffffffff1673ffffffffffffffffffffffffffffffffffffffff16815260200190815260200160002060009054906101000a900460ff169050919050565b6000600454905090565b6000600654421015801561086357506007544211155b905090565b600c5481565b6000600754905090565b6000600554610885610843565b1015905090565b6000600260009054906101000a900473ffffffffffffffffffffffffffffffffffffffff16905090565b6108be610559565b73ffffffffffffffffffffffffffffffffffffffff166108dc6109ea565b73ffffffffffffffffffffffffffffffffffffffff1614610932576040517f08c379a000000000000000000000000000000000000000000000000000000000815260040161092990611e51565b60405180910390fd5b6001600a60146101000a81548160ff021916908315150217905550565b600a60149054906101000a900460ff1681565b61096a610559565b73ffffffffffffffffffffffffffffffffffffffff166109886109ea565b73ffffffffffffffffffffffffffffffffffffffff16146109de576040517f08c379a00000000000000000000000000000000000000000000000000000000081526004016109d590611e51565b60405180910390fd5b6109e860006110b7565b565b6000600a60009054906101000a900473ffffffffffffffffffffffffffffffffffffffff16905090565b6000600654905090565b610a26610559565b73ffffffffffffffffffffffffffffffffffffffff16610a446109ea565b73ffffffffffffffffffffffffffffffffffffffff1614610a9a576040517f08c379a0000000000000000000000000000000000000000000000000000000008152600401610a9190611e51565b60405180910390fd5b6000600a60146101000a81548160ff021916908315150217905550565b610ac7610ac2610559565b611022565b565b610ad1610559565b73ffffffffffffffffffffffffffffffffffffffff16610aef6109ea565b73ffffffffffffffffffffffffffffffffffffffff1614610b45576040517f08c379a0000000000000000000000000000000000000000000000000000000008152600401610b3c90611e51565b60405180910390fd5b610b4d610a14565b4210610b8e576040517f08c379a0000000000000000000000000000000000000000000000000000000008152600401610b8590611df1565b60405180910390fd5b80600b8190555050565b600b5481565b610ba6610559565b73ffffffffffffffffffffffffffffffffffffffff16610bc46109ea565b73ffffffffffffffffffffffffffffffffffffffff1614610c1a576040517f08c379a0000000000000000000000000000000000000000000000000000000008152600401610c1190611e51565b60405180910390fd5b600073ffffffffffffffffffffffffffffffffffffffff168173ffffffffffffffffffffffffffffffffffffffff161415610c8a576040517f08c379a0000000000000000000000000000000000000000000000000000000008152600401610c8190611d71565b60405180910390fd5b610c93816110b7565b50565b610c9e610559565b73ffffffffffffffffffffffffffffffffffffffff16610cbc6109ea565b73ffffffffffffffffffffffffffffffffffffffff1614610d12576040517f08c379a0000000000000000000000000000000000000000000000000000000008152600401610d0990611e51565b60405180910390fd5b610d1a610a14565b4210610d5b576040517f08c379a0000000000000000000000000000000000000000000000000000000008152600401610d5290611df1565b60405180910390fd5b80600c8190555050565b6000600160009054906101000a900473ffffffffffffffffffffffffffffffffffffffff16905090565b610d9761084d565b610dd6576040517f08c379a0000000000000000000000000000000000000000000000000000000008152600401610dcd90611d91565b60405180910390fd5b600a60149054906101000a900460ff1615610e26576040517f08c379a0000000000000000000000000000000000000000000000000000000008152600401610e1d90611e31565b60405180910390fd5b610e30828261117d565b600b548110158015610e445750600c548111155b610e83576040517f08c379a0000000000000000000000000000000000000000000000000000000008152600401610e7a90611d51565b60405180910390fd5b610e8c826107ed565b610ecb576040517f08c379a0000000000000000000000000000000000000000000000000000000008152600401610ec290611d31565b60405180910390fd5b5050565b6000610ee6600354836111d290919063ffffffff16565b9050919050565b60008183610efb9190611f87565b905092915050565b610f0d82826111e8565b5050565b5050565b600260009054906101000a900473ffffffffffffffffffffffffffffffffffffffff1673ffffffffffffffffffffffffffffffffffffffff166108fc349081150290604051600060405180830381858888f19350505050158015610f7d573d6000803e3d6000fd5b50565b5050565b6001600960008373ffffffffffffffffffffffffffffffffffffffff1673ffffffffffffffffffffffffffffffffffffffff16815260200190815260200160002060006101000a81548160ff0219169083151502179055508073ffffffffffffffffffffffffffffffffffffffff167fee1504a83b6d4a361f4c1dc78ab59bfa30d6a3b6612c403e86bb01ef2984295f60405160405180910390a250565b600960008273ffffffffffffffffffffffffffffffffffffffff1673ffffffffffffffffffffffffffffffffffffffff16815260200190815260200160002060006101000a81549060ff02191690558073ffffffffffffffffffffffffffffffffffffffff167f270d9b30cf5b0793bbfd54c9d5b94aeb49462b8148399000265144a8722da6b660405160405180910390a250565b6000600a60009054906101000a900473ffffffffffffffffffffffffffffffffffffffff16905081600a60006101000a81548173ffffffffffffffffffffffffffffffffffffffff021916908373ffffffffffffffffffffffffffffffffffffffff1602179055508173ffffffffffffffffffffffffffffffffffffffff168173ffffffffffffffffffffffffffffffffffffffff167f8be0079c531659141344cd1fd0a4f28419497f9722a3daafe3b4186f6b6457e060405160405180910390a35050565b61118561084d565b6111c4576040517f08c379a00000000000000000000000000000000000000000000000000000000081526004016111bb90611d91565b60405180910390fd5b6111ce8282611239565b5050565b600081836111e09190611fdd565b905092915050565b6112358282600160009054906101000a900473ffffffffffffffffffffffffffffffffffffffff1673ffffffffffffffffffffffffffffffffffffffff166112a59092919063ffffffff16565b5050565b611243828261132b565b60055461126082611252610843565b610eed90919063ffffffff16565b11156112a1576040517f08c379a000000000000000000000000000000000000000000000000000000000815260040161129890611db1565b60405180910390fd5b5050565b6113268363a9059cbb60e01b84846040516024016112c4929190611cb0565b604051602081830303815290604052907bffffffffffffffffffffffffffffffffffffffffffffffffffffffff19166020820180517bffffffffffffffffffffffffffffffffffffffffffffffffffffffff83818316178352505050506113e3565b505050565b600073ffffffffffffffffffffffffffffffffffffffff168273ffffffffffffffffffffffffffffffffffffffff16141561139b576040517f08c379a000000000000000000000000000000000000000000000000000000000815260040161139290611e71565b60405180910390fd5b60008114156113df576040517f08c379a00000000000000000000000000000000000000000000000000000000081526004016113d690611ef1565b60405180910390fd5b5050565b6000611445826040518060400160405280602081526020017f5361666545524332303a206c6f772d6c6576656c2063616c6c206661696c65648152508573ffffffffffffffffffffffffffffffffffffffff166114aa9092919063ffffffff16565b90506000815111156114a5578080602001905181019061146591906116b8565b6114a4576040517f08c379a000000000000000000000000000000000000000000000000000000000815260040161149b90611eb1565b60405180910390fd5b5b505050565b60606114b984846000856114c2565b90509392505050565b606082471015611507576040517f08c379a00000000000000000000000000000000000000000000000000000000081526004016114fe90611dd1565b60405180910390fd5b611510856115d6565b61154f576040517f08c379a000000000000000000000000000000000000000000000000000000000815260040161154690611e91565b60405180910390fd5b6000808673ffffffffffffffffffffffffffffffffffffffff1685876040516115789190611c63565b60006040518083038185875af1925050503d80600081146115b5576040519150601f19603f3d011682016040523d82523d6000602084013e6115ba565b606091505b50915091506115ca8282866115e9565b92505050949350505050565b600080823b905060008111915050919050565b606083156115f957829050611649565b60008351111561160c5782518084602001fd5b816040517f08c379a00000000000000000000000000000000000000000000000000000000081526004016116409190611d0f565b60405180910390fd5b9392505050565b60008135905061165f81612128565b92915050565b6000815190506116748161213f565b92915050565b60008135905061168981612156565b92915050565b6000602082840312156116a157600080fd5b60006116af84828501611650565b91505092915050565b6000602082840312156116ca57600080fd5b60006116d884828501611665565b91505092915050565b6000602082840312156116f357600080fd5b60006117018482850161167a565b91505092915050565b61171381612049565b82525050565b61172281612037565b82525050565b6117318161205b565b82525050565b600061174282611f55565b61174c8185611f6b565b935061175c8185602086016120b5565b80840191505092915050565b61177181612091565b82525050565b600061178282611f60565b61178c8185611f76565b935061179c8185602086016120b5565b6117a581612117565b840191505092915050565b60006117bd604183611f76565b91507f57686974656c69737443726f776473616c653a2062656e65666963696172792060008301527f646f65736e27742068617665207468652057686974656c697374656420726f6c60208301527f65000000000000000000000000000000000000000000000000000000000000006040830152606082019050919050565b6000611849601683611f76565b91507f776569416d6f756e74206973206e6f742076616c6964000000000000000000006000830152602082019050919050565b6000611889602683611f76565b91507f4f776e61626c653a206e6577206f776e657220697320746865207a65726f206160008301527f64647265737300000000000000000000000000000000000000000000000000006020830152604082019050919050565b60006118ef601883611f76565b91507f54696d656443726f776473616c653a206e6f74206f70656e00000000000000006000830152602082019050919050565b600061192f601d83611f76565b91507f43617070656443726f776473616c653a206361702065786365656465640000006000830152602082019050919050565b600061196f602683611f76565b91507f416464726573733a20696e73756666696369656e742062616c616e636520666f60008301527f722063616c6c00000000000000000000000000000000000000000000000000006020830152604082019050919050565b60006119d5600883611f76565b91507f546f6f206c6174650000000000000000000000000000000000000000000000006000830152602082019050919050565b6000611a15601883611f76565b91507f6d73672e73656e646572206d7573742062652061646d696e00000000000000006000830152602082019050919050565b6000611a55601283611f76565b91507f5468652073616c652069732070617573656400000000000000000000000000006000830152602082019050919050565b6000611a95602083611f76565b91507f4f776e61626c653a2063616c6c6572206973206e6f7420746865206f776e65726000830152602082019050919050565b6000611ad5602a83611f76565b91507f43726f776473616c653a2062656e656669636961727920697320746865207a6560008301527f726f2061646472657373000000000000000000000000000000000000000000006020830152604082019050919050565b6000611b3b601d83611f76565b91507f416464726573733a2063616c6c20746f206e6f6e2d636f6e74726163740000006000830152602082019050919050565b6000611b7b602a83611f76565b91507f5361666545524332303a204552433230206f7065726174696f6e20646964206e60008301527f6f742073756363656564000000000000000000000000000000000000000000006020830152604082019050919050565b6000611be1601f83611f76565b91507f5265656e7472616e637947756172643a207265656e7472616e742063616c6c006000830152602082019050919050565b6000611c21601983611f76565b91507f43726f776473616c653a20776569416d6f756e742069732030000000000000006000830152602082019050919050565b611c5d81612087565b82525050565b6000611c6f8284611737565b915081905092915050565b6000602082019050611c8f6000830184611719565b92915050565b6000602082019050611caa600083018461170a565b92915050565b6000604082019050611cc56000830185611719565b611cd26020830184611c54565b9392505050565b6000602082019050611cee6000830184611728565b92915050565b6000602082019050611d096000830184611768565b92915050565b60006020820190508181036000830152611d298184611777565b905092915050565b60006020820190508181036000830152611d4a816117b0565b9050919050565b60006020820190508181036000830152611d6a8161183c565b9050919050565b60006020820190508181036000830152611d8a8161187c565b9050919050565b60006020820190508181036000830152611daa816118e2565b9050919050565b60006020820190508181036000830152611dca81611922565b9050919050565b60006020820190508181036000830152611dea81611962565b9050919050565b60006020820190508181036000830152611e0a816119c8565b9050919050565b60006020820190508181036000830152611e2a81611a08565b9050919050565b60006020820190508181036000830152611e4a81611a48565b9050919050565b60006020820190508181036000830152611e6a81611a88565b9050919050565b60006020820190508181036000830152611e8a81611ac8565b9050919050565b60006020820190508181036000830152611eaa81611b2e565b9050919050565b60006020820190508181036000830152611eca81611b6e565b9050919050565b60006020820190508181036000830152611eea81611bd4565b9050919050565b60006020820190508181036000830152611f0a81611c14565b9050919050565b6000602082019050611f266000830184611c54565b92915050565b6000604082019050611f416000830185611c54565b611f4e6020830184611c54565b9392505050565b600081519050919050565b600081519050919050565b600081905092915050565b600082825260208201905092915050565b6000611f9282612087565b9150611f9d83612087565b9250827fffffffffffffffffffffffffffffffffffffffffffffffffffffffffffffffff03821115611fd257611fd16120e8565b5b828201905092915050565b6000611fe882612087565b9150611ff383612087565b9250817fffffffffffffffffffffffffffffffffffffffffffffffffffffffffffffffff048311821515161561202c5761202b6120e8565b5b828202905092915050565b600061204282612067565b9050919050565b600061205482612067565b9050919050565b60008115159050919050565b600073ffffffffffffffffffffffffffffffffffffffff82169050919050565b6000819050919050565b600061209c826120a3565b9050919050565b60006120ae82612067565b9050919050565b60005b838110156120d35780820151818401526020810190506120b8565b838111156120e2576000848401525b50505050565b7f4e487b7100000000000000000000000000000000000000000000000000000000600052601160045260246000fd5b6000601f19601f8301169050919050565b61213181612037565b811461213c57600080fd5b50565b6121488161205b565b811461215357600080fd5b50565b61215f81612087565b811461216a57600080fd5b5056fea2646970667358221220607ddb3cca8c9c843243d77ad6e5ea30c8a482cf94e52ce10d1c988d15a25d8764736f6c63430008000033",
  "immutableReferences": {},
  "source": "//SPDX-License-Identifier: MIT\npragma solidity ^0.8.0;\n\nimport \"../node_modules/@openzeppelin/contracts/utils/math/SafeMath.sol\";\nimport \"../node_modules/@openzeppelin/contracts/access/Ownable.sol\";\nimport \"./crowdsale/Crowdsale.sol\";\nimport \"./crowdsale/CappedCrowdsale.sol\";\nimport \"./crowdsale/TimedCrowdsale.sol\";\nimport \"./utils/WhitelistedRoles.sol\";\n\n\ncontract BTEMSale is Crowdsale, CappedCrowdsale, TimedCrowdsale, WhitelistedRole, Ownable{\n    using SafeMath for uint256;\n\n    bool public paused;\n    uint256 public minContrib = 300 * 10 ** 18;\n    uint256 public maxContrib = 3000 * 10 ** 18;\n\n    modifier notPaused(){\n        require(!paused, \"The sale is paused\");\n        _;\n    }\n\n    constructor(\n        uint256 rate_, \n        address payable wallet_, \n        IERC20 token_,\n        uint256 openingTime_,\n        uint256 closingTime_,\n        uint256 cap_\n    )\n    Crowdsale(rate_, wallet_, token_)\n    WhitelistedRole()\n    CappedCrowdsale(cap_)\n    TimedCrowdsale(openingTime_, closingTime_)\n    Ownable()\n    {\n        paused = false;\n    }\n\n    /**\n        @dev Function to pause the sale\n    */\n    function pauseSale() public onlyOwner{\n        paused = true;\n    }\n\n\n    /**\n        @dev Function to unpause the sale\n    */\n    function unpauseSale() public onlyOwner{\n        paused = false;\n    }\n\n\n    function setMinContrib(uint256 amount) public onlyOwner {\n        require(block.timestamp < openingTime(), \"Too late\");\n        minContrib = amount;\n    }\n\n\n    function setMaxContrib(uint256 amount) public onlyOwner {\n        require(block.timestamp < openingTime(), \"Too late\");\n        maxContrib = amount;\n    }\n\n\n    function _preValidatePurchase(address beneficiary, uint256 weiAmount) \n        internal \n        view \n        override(\n            Crowdsale, \n            CappedCrowdsale, \n            TimedCrowdsale\n        ) \n        onlyWhileOpen \n        notPaused\n    {\n        super._preValidatePurchase(beneficiary, weiAmount);\n        require(weiAmount >= minContrib && weiAmount <= maxContrib, \"weiAmount is not valid\");\n        require(isWhitelisted(beneficiary), \"WhitelistCrowdsale: beneficiary doesn't have the Whitelisted role\");\n    }\n}",
  "sourcePath": "/home/giacomo/Scrivania/lavoro/NFT_Calcio_Enrico_Coviello/contracts/BTEMSale.sol",
  "compiler": {
    "name": "solc",
    "version": "0.8.0+commit.c7dfd78e.Emscripten.clang"
  },
  "schemaVersion": "3.3.4",
  "updatedAt": "2021-12-06T13:14:56.875Z",
  "devdoc": {
    "kind": "dev",
    "methods": {
      "buyTokens(address)": {
        "details": "low level token purchase ***DO NOT OVERRIDE*** This function has a non-reentrancy guard, so it shouldn't be called by another `nonReentrant` function.",
        "params": {
          "beneficiary": "Recipient of the token purchase"
        }
      },
      "owner()": {
        "details": "Returns the address of the current owner."
      },
      "pauseSale()": {
        "details": "Function to pause the sale"
      },
      "rate()": {
        "returns": {
          "_0": "the number of token units a buyer gets per wei."
        }
      },
      "renounceOwnership()": {
        "details": "Leaves the contract without owner. It will not be possible to call `onlyOwner` functions anymore. Can only be called by the current owner. NOTE: Renouncing ownership will leave the contract without an owner, thereby removing any functionality that is only available to the owner."
      },
      "token()": {
        "returns": {
          "_0": "the token being sold."
        }
      },
      "transferOwnership(address)": {
        "details": "Transfers ownership of the contract to a new account (`newOwner`). Can only be called by the current owner."
      },
      "unpauseSale()": {
        "details": "Function to unpause the sale"
      },
      "wallet()": {
        "returns": {
          "_0": "the address where funds are collected."
        }
      },
      "weiRaised()": {
        "returns": {
          "_0": "the amount of wei raised."
        }
      }
    },
    "version": 1
  },
  "userdoc": {
    "events": {
      "TokensPurchased(address,address,uint256,uint256)": {
        "notice": "Event for token purchase logging"
      }
    },
    "kind": "user",
    "methods": {},
    "version": 1
  }
}