{
  "contractName": "BTEMCoin",
  "abi": [
    {
      "inputs": [],
      "stateMutability": "nonpayable",
      "type": "constructor"
    },
    {
      "anonymous": false,
      "inputs": [
        {
          "indexed": true,
          "internalType": "address",
          "name": "owner",
          "type": "address"
        },
        {
          "indexed": true,
          "internalType": "address",
          "name": "spender",
          "type": "address"
        },
        {
          "indexed": false,
          "internalType": "uint256",
          "name": "value",
          "type": "uint256"
        }
      ],
      "name": "Approval",
      "type": "event"
    },
    {
      "anonymous": false,
      "inputs": [
        {
          "indexed": true,
          "internalType": "address",
          "name": "previousOwner",
          "type": "address"
        },
        {
          "indexed": true,
          "internalType": "address",
          "name": "newOwner",
          "type": "address"
        }
      ],
      "name": "OwnershipTransferred",
      "type": "event"
    },
    {
      "anonymous": false,
      "inputs": [
        {
          "indexed": true,
          "internalType": "address",
          "name": "from",
          "type": "address"
        },
        {
          "indexed": true,
          "internalType": "address",
          "name": "to",
          "type": "address"
        },
        {
          "indexed": false,
          "internalType": "uint256",
          "name": "value",
          "type": "uint256"
        }
      ],
      "name": "Transfer",
      "type": "event"
    },
    {
      "inputs": [],
      "name": "LPFee",
      "outputs": [
        {
          "internalType": "uint256",
          "name": "",
          "type": "uint256"
        }
      ],
      "stateMutability": "view",
      "type": "function"
    },
    {
      "inputs": [],
      "name": "LPWallet",
      "outputs": [
        {
          "internalType": "address",
          "name": "",
          "type": "address"
        }
      ],
      "stateMutability": "view",
      "type": "function"
    },
    {
      "inputs": [],
      "name": "_name",
      "outputs": [
        {
          "internalType": "string",
          "name": "",
          "type": "string"
        }
      ],
      "stateMutability": "view",
      "type": "function"
    },
    {
      "inputs": [],
      "name": "_symbol",
      "outputs": [
        {
          "internalType": "string",
          "name": "",
          "type": "string"
        }
      ],
      "stateMutability": "view",
      "type": "function"
    },
    {
      "inputs": [],
      "name": "_totalSupply",
      "outputs": [
        {
          "internalType": "uint256",
          "name": "",
          "type": "uint256"
        }
      ],
      "stateMutability": "view",
      "type": "function"
    },
    {
      "inputs": [],
      "name": "devFee",
      "outputs": [
        {
          "internalType": "uint256",
          "name": "",
          "type": "uint256"
        }
      ],
      "stateMutability": "view",
      "type": "function"
    },
    {
      "inputs": [],
      "name": "devWallet",
      "outputs": [
        {
          "internalType": "address",
          "name": "",
          "type": "address"
        }
      ],
      "stateMutability": "view",
      "type": "function"
    },
    {
      "inputs": [],
      "name": "limited",
      "outputs": [
        {
          "internalType": "bool",
          "name": "",
          "type": "bool"
        }
      ],
      "stateMutability": "view",
      "type": "function"
    },
    {
      "inputs": [],
      "name": "marketFee",
      "outputs": [
        {
          "internalType": "uint256",
          "name": "",
          "type": "uint256"
        }
      ],
      "stateMutability": "view",
      "type": "function"
    },
    {
      "inputs": [],
      "name": "marketWallet",
      "outputs": [
        {
          "internalType": "address",
          "name": "",
          "type": "address"
        }
      ],
      "stateMutability": "view",
      "type": "function"
    },
    {
      "inputs": [],
      "name": "maxTokensForWallet",
      "outputs": [
        {
          "internalType": "uint256",
          "name": "",
          "type": "uint256"
        }
      ],
      "stateMutability": "view",
      "type": "function"
    },
    {
      "inputs": [],
      "name": "maxTxAmount",
      "outputs": [
        {
          "internalType": "uint256",
          "name": "",
          "type": "uint256"
        }
      ],
      "stateMutability": "view",
      "type": "function"
    },
    {
      "inputs": [],
      "name": "owner",
      "outputs": [
        {
          "internalType": "address",
          "name": "",
          "type": "address"
        }
      ],
      "stateMutability": "view",
      "type": "function"
    },
    {
      "inputs": [],
      "name": "renounceOwnership",
      "outputs": [],
      "stateMutability": "nonpayable",
      "type": "function"
    },
    {
      "inputs": [],
      "name": "takeFee",
      "outputs": [
        {
          "internalType": "bool",
          "name": "",
          "type": "bool"
        }
      ],
      "stateMutability": "view",
      "type": "function"
    },
    {
      "inputs": [
        {
          "internalType": "address",
          "name": "newOwner",
          "type": "address"
        }
      ],
      "name": "transferOwnership",
      "outputs": [],
      "stateMutability": "nonpayable",
      "type": "function"
    },
    {
      "inputs": [],
      "name": "name",
      "outputs": [
        {
          "internalType": "string",
          "name": "",
          "type": "string"
        }
      ],
      "stateMutability": "view",
      "type": "function"
    },
    {
      "inputs": [],
      "name": "symbol",
      "outputs": [
        {
          "internalType": "string",
          "name": "",
          "type": "string"
        }
      ],
      "stateMutability": "view",
      "type": "function"
    },
    {
      "inputs": [],
      "name": "decimals",
      "outputs": [
        {
          "internalType": "uint8",
          "name": "",
          "type": "uint8"
        }
      ],
      "stateMutability": "view",
      "type": "function"
    },
    {
      "inputs": [],
      "name": "totalSupply",
      "outputs": [
        {
          "internalType": "uint256",
          "name": "",
          "type": "uint256"
        }
      ],
      "stateMutability": "view",
      "type": "function"
    },
    {
      "inputs": [
        {
          "internalType": "address",
          "name": "account",
          "type": "address"
        }
      ],
      "name": "balanceOf",
      "outputs": [
        {
          "internalType": "uint256",
          "name": "",
          "type": "uint256"
        }
      ],
      "stateMutability": "view",
      "type": "function"
    },
    {
      "inputs": [
        {
          "internalType": "address",
          "name": "recipient",
          "type": "address"
        },
        {
          "internalType": "uint256",
          "name": "amount",
          "type": "uint256"
        }
      ],
      "name": "transfer",
      "outputs": [
        {
          "internalType": "bool",
          "name": "",
          "type": "bool"
        }
      ],
      "stateMutability": "nonpayable",
      "type": "function"
    },
    {
      "inputs": [
        {
          "internalType": "address",
          "name": "owner",
          "type": "address"
        },
        {
          "internalType": "address",
          "name": "spender",
          "type": "address"
        }
      ],
      "name": "allowance",
      "outputs": [
        {
          "internalType": "uint256",
          "name": "",
          "type": "uint256"
        }
      ],
      "stateMutability": "view",
      "type": "function"
    },
    {
      "inputs": [
        {
          "internalType": "address",
          "name": "spender",
          "type": "address"
        },
        {
          "internalType": "uint256",
          "name": "amount",
          "type": "uint256"
        }
      ],
      "name": "approve",
      "outputs": [
        {
          "internalType": "bool",
          "name": "",
          "type": "bool"
        }
      ],
      "stateMutability": "nonpayable",
      "type": "function"
    },
    {
      "inputs": [
        {
          "internalType": "uint256",
          "name": "pos",
          "type": "uint256"
        },
        {
          "internalType": "address",
          "name": "newAddress",
          "type": "address"
        }
      ],
      "name": "changeWalletAddress",
      "outputs": [
        {
          "internalType": "bool",
          "name": "",
          "type": "bool"
        }
      ],
      "stateMutability": "nonpayable",
      "type": "function"
    },
    {
      "inputs": [
        {
          "internalType": "uint256",
          "name": "pos",
          "type": "uint256"
        },
        {
          "internalType": "uint256",
          "name": "updatedFee",
          "type": "uint256"
        }
      ],
      "name": "changeFeeOfWallet",
      "outputs": [
        {
          "internalType": "bool",
          "name": "",
          "type": "bool"
        }
      ],
      "stateMutability": "nonpayable",
      "type": "function"
    },
    {
      "inputs": [
        {
          "internalType": "address",
          "name": "excludeAddr",
          "type": "address"
        }
      ],
      "name": "excludeAddrFromFee",
      "outputs": [
        {
          "internalType": "bool",
          "name": "",
          "type": "bool"
        }
      ],
      "stateMutability": "nonpayable",
      "type": "function"
    },
    {
      "inputs": [
        {
          "internalType": "address",
          "name": "includeAddr",
          "type": "address"
        }
      ],
      "name": "includeAddrFromFee",
      "outputs": [
        {
          "internalType": "bool",
          "name": "",
          "type": "bool"
        }
      ],
      "stateMutability": "nonpayable",
      "type": "function"
    },
    {
      "inputs": [],
      "name": "getMaxTxAmount",
      "outputs": [
        {
          "internalType": "uint256",
          "name": "",
          "type": "uint256"
        }
      ],
      "stateMutability": "view",
      "type": "function"
    },
    {
      "inputs": [
        {
          "internalType": "uint256",
          "name": "_maxAmount",
          "type": "uint256"
        }
      ],
      "name": "setMaxTxAmount",
      "outputs": [
        {
          "internalType": "bool",
          "name": "",
          "type": "bool"
        }
      ],
      "stateMutability": "nonpayable",
      "type": "function"
    },
    {
      "inputs": [],
      "name": "getMaxTokensForWallet",
      "outputs": [
        {
          "internalType": "uint256",
          "name": "",
          "type": "uint256"
        }
      ],
      "stateMutability": "view",
      "type": "function"
    },
    {
      "inputs": [
        {
          "internalType": "uint256",
          "name": "newMaxTokenForWallet",
          "type": "uint256"
        }
      ],
      "name": "setMaxTokensForWallet",
      "outputs": [
        {
          "internalType": "bool",
          "name": "",
          "type": "bool"
        }
      ],
      "stateMutability": "nonpayable",
      "type": "function"
    },
    {
      "inputs": [
        {
          "internalType": "bool",
          "name": "status",
          "type": "bool"
        }
      ],
      "name": "setTakeFee",
      "outputs": [
        {
          "internalType": "bool",
          "name": "",
          "type": "bool"
        }
      ],
      "stateMutability": "nonpayable",
      "type": "function"
    },
    {
      "inputs": [
        {
          "internalType": "bool",
          "name": "status",
          "type": "bool"
        }
      ],
      "name": "setLimited",
      "outputs": [
        {
          "internalType": "bool",
          "name": "",
          "type": "bool"
        }
      ],
      "stateMutability": "nonpayable",
      "type": "function"
    },
    {
      "inputs": [
        {
          "internalType": "address",
          "name": "sender",
          "type": "address"
        },
        {
          "internalType": "address",
          "name": "recipient",
          "type": "address"
        },
        {
          "internalType": "uint256",
          "name": "amount",
          "type": "uint256"
        }
      ],
      "name": "transferFrom",
      "outputs": [
        {
          "internalType": "bool",
          "name": "",
          "type": "bool"
        }
      ],
      "stateMutability": "nonpayable",
      "type": "function"
    },
    {
      "inputs": [
        {
          "internalType": "address",
          "name": "spender",
          "type": "address"
        },
        {
          "internalType": "uint256",
          "name": "addedValue",
          "type": "uint256"
        }
      ],
      "name": "increaseAllowance",
      "outputs": [
        {
          "internalType": "bool",
          "name": "",
          "type": "bool"
        }
      ],
      "stateMutability": "nonpayable",
      "type": "function"
    },
    {
      "inputs": [
        {
          "internalType": "address",
          "name": "spender",
          "type": "address"
        },
        {
          "internalType": "uint256",
          "name": "subtractedValue",
          "type": "uint256"
        }
      ],
      "name": "decreaseAllowance",
      "outputs": [
        {
          "internalType": "bool",
          "name": "",
          "type": "bool"
        }
      ],
      "stateMutability": "nonpayable",
      "type": "function"
    }
  ],
  "bytecode": "0x60806040526040518060400160405280600c81526020017f4265737465616d20436f696e0000000000000000000000000000000000000000815250600190805190602001906200005192919062000589565b506040518060400160405280600481526020017f4254454d00000000000000000000000000000000000000000000000000000000815250600290805190602001906200009f92919062000589565b5073a1b75255829de9bcae5de27ad449ddaa5dab798c600460006101000a81548173ffffffffffffffffffffffffffffffffffffffff021916908373ffffffffffffffffffffffffffffffffffffffff16021790555060046005557303ede84e062ab58df13bd73ac550b1473a38f26c600660006101000a81548173ffffffffffffffffffffffffffffffffffffffff021916908373ffffffffffffffffffffffffffffffffffffffff160217905550600660075573f6d351eb65944369ec419560689049d68f53ea8a600860006101000a81548173ffffffffffffffffffffffffffffffffffffffff021916908373ffffffffffffffffffffffffffffffffffffffff1602179055506002600955348015620001bb57600080fd5b50620001dc620001d06200030860201b60201c565b6200031060201b60201c565b620001f9336a52b7d2dcc80cd2e4000000620003d460201b60201c565b6001600e60003373ffffffffffffffffffffffffffffffffffffffff1673ffffffffffffffffffffffffffffffffffffffff16815260200190815260200160002060006101000a81548160ff0219169083151502179055506001600e60003073ffffffffffffffffffffffffffffffffffffffff1673ffffffffffffffffffffffffffffffffffffffff16815260200190815260200160002060006101000a81548160ff0219169083151502179055506000600a60006101000a81548160ff0219169083151502179055506000600a60016101000a81548160ff0219169083151502179055506a084595161401484a000000600c8190555069021e19e0c9bab2400000600b81905550620007d7565b600033905090565b60008060009054906101000a900473ffffffffffffffffffffffffffffffffffffffff169050816000806101000a81548173ffffffffffffffffffffffffffffffffffffffff021916908373ffffffffffffffffffffffffffffffffffffffff1602179055508173ffffffffffffffffffffffffffffffffffffffff168173ffffffffffffffffffffffffffffffffffffffff167f8be0079c531659141344cd1fd0a4f28419497f9722a3daafe3b4186f6b6457e060405160405180910390a35050565b600073ffffffffffffffffffffffffffffffffffffffff168273ffffffffffffffffffffffffffffffffffffffff16141562000447576040517f08c379a00000000000000000000000000000000000000000000000000000000081526004016200043e906200068c565b60405180910390fd5b62000463816003546200057160201b62001b5d1790919060201c565b600381905550620004c281600d60008573ffffffffffffffffffffffffffffffffffffffff1673ffffffffffffffffffffffffffffffffffffffff168152602001908152602001600020546200057160201b62001b5d1790919060201c565b600d60008473ffffffffffffffffffffffffffffffffffffffff1673ffffffffffffffffffffffffffffffffffffffff168152602001908152602001600020819055508173ffffffffffffffffffffffffffffffffffffffff16600073ffffffffffffffffffffffffffffffffffffffff167fddf252ad1be2c89b69c2b068fc378daa952ba7f163c4a11628f55a4df523b3ef83604051620005659190620006ae565b60405180910390a35050565b60008183620005819190620006dc565b905092915050565b828054620005979062000743565b90600052602060002090601f016020900481019282620005bb576000855562000607565b82601f10620005d657805160ff191683800117855562000607565b8280016001018555821562000607579182015b8281111562000606578251825591602001919060010190620005e9565b5b5090506200061691906200061a565b5090565b5b80821115620006355760008160009055506001016200061b565b5090565b600062000648601f83620006cb565b91507f45524332303a206d696e7420746f20746865207a65726f2061646472657373006000830152602082019050919050565b620006868162000739565b82525050565b60006020820190508181036000830152620006a78162000639565b9050919050565b6000602082019050620006c560008301846200067b565b92915050565b600082825260208201905092915050565b6000620006e98262000739565b9150620006f68362000739565b9250827fffffffffffffffffffffffffffffffffffffffffffffffffffffffffffffffff038211156200072e576200072d62000779565b5b828201905092915050565b6000819050919050565b600060028204905060018216806200075c57607f821691505b60208210811415620007735762000772620007a8565b5b50919050565b7f4e487b7100000000000000000000000000000000000000000000000000000000600052601160045260246000fd5b7f4e487b7100000000000000000000000000000000000000000000000000000000600052602260045260246000fd5b61368680620007e76000396000f3fe608060405234801561001057600080fd5b50600436106102275760003560e01c8063860a32ec11610130578063a9059cbb116100b8578063dd62ed3e1161007c578063dd62ed3e146106b0578063dd63b12b146106e0578063e4440a8614610710578063ec28438a1461072e578063f2fde38b1461075e57610227565b8063a9059cbb14610608578063b09f126614610638578063c116d54f14610656578063c7260f6714610674578063d28d88521461069257610227565b806392bfe8b9116100ff57806392bfe8b91461053c57806395d89b411461055a578063a02deb3214610578578063a3c5d520146105a8578063a457c2d7146105d857610227565b8063860a32ec146104c45780638c0b5e22146104e25780638da5cb5b146105005780638ea5220f1461051e57610227565b806330e7beac116101b35780636827e764116101825780636827e7641461041e5780636cd74b2f1461043c5780636d8b05271461046c57806370a082311461048a578063715018a6146104ba57610227565b806330e7beac14610382578063313ce567146103b257806339509351146103d05780633eaaf86b1461040057610227565b80630e07ae8c116101fa5780630e07ae8c146102c857806318160ddd146102e6578063181aa1fd14610304578063227313961461032257806323b872dd1461035257610227565b806306fdde031461022c578063095ea7b31461024a57806309ef3be11461027a5780630ccf2156146102aa575b600080fd5b61023461077a565b60405161024191906130ca565b60405180910390f35b610264600480360381019061025f91906128b7565b61080c565b60405161027191906130af565b60405180910390f35b610294600480360381019061028f9190612803565b61082a565b6040516102a191906130af565b60405180910390f35b6102b2610a03565b6040516102bf919061334c565b60405180910390f35b6102d0610a09565b6040516102dd919061334c565b60405180910390f35b6102ee610a0f565b6040516102fb919061334c565b60405180910390f35b61030c610a19565b60405161031991906130af565b60405180910390f35b61033c600480360381019061033791906128f3565b610a2c565b60405161034991906130af565b60405180910390f35b61036c60048036038101906103679190612868565b610b3e565b60405161037991906130af565b60405180910390f35b61039c60048036038101906103979190612945565b610c36565b6040516103a991906130af565b60405180910390f35b6103ba610e83565b6040516103c79190613367565b60405180910390f35b6103ea60048036038101906103e591906128b7565b610e8c565b6040516103f791906130af565b60405180910390f35b610408610f38565b604051610415919061334c565b60405180910390f35b610426610f3e565b604051610433919061334c565b60405180910390f35b61045660048036038101906104519190612803565b610f44565b60405161046391906130af565b60405180910390f35b61047461111d565b604051610481919061334c565b60405180910390f35b6104a4600480360381019061049f9190612803565b611127565b6040516104b1919061334c565b60405180910390f35b6104c2611170565b005b6104cc6111f8565b6040516104d991906130af565b60405180910390f35b6104ea61120b565b6040516104f7919061334c565b60405180910390f35b610508611211565b6040516105159190613094565b60405180910390f35b61052661123a565b6040516105339190613094565b60405180910390f35b610544611260565b6040516105519190613094565b60405180910390f35b610562611286565b60405161056f91906130ca565b60405180910390f35b610592600480360381019061058d919061291c565b611318565b60405161059f91906130af565b60405180910390f35b6105c260048036038101906105bd9190612981565b611405565b6040516105cf91906130af565b60405180910390f35b6105f260048036038101906105ed91906128b7565b611585565b6040516105ff91906130af565b60405180910390f35b610622600480360381019061061d91906128b7565b611670565b60405161062f91906130af565b60405180910390f35b61064061168e565b60405161064d91906130ca565b60405180910390f35b61065e61171c565b60405161066b919061334c565b60405180910390f35b61067c611726565b604051610689919061334c565b60405180910390f35b61069a61172c565b6040516106a791906130ca565b60405180910390f35b6106ca60048036038101906106c5919061282c565b6117ba565b6040516106d7919061334c565b60405180910390f35b6106fa60048036038101906106f591906128f3565b611841565b60405161070791906130af565b60405180910390f35b610718611953565b6040516107259190613094565b60405180910390f35b6107486004803603810190610743919061291c565b611979565b60405161075591906130af565b60405180910390f35b61077860048036038101906107739190612803565b611a65565b005b6060600180546107899061353b565b80601f01602080910402602001604051908101604052809291908181526020018280546107b59061353b565b80156108025780601f106107d757610100808354040283529160200191610802565b820191906000526020600020905b8154815290600101906020018083116107e557829003601f168201915b5050505050905090565b6000610820610819611b73565b8484611b7b565b6001905092915050565b6000600660009054906101000a900473ffffffffffffffffffffffffffffffffffffffff1673ffffffffffffffffffffffffffffffffffffffff163373ffffffffffffffffffffffffffffffffffffffff1614806108ba575061088b611211565b73ffffffffffffffffffffffffffffffffffffffff163373ffffffffffffffffffffffffffffffffffffffff16145b6108c357600080fd5b3073ffffffffffffffffffffffffffffffffffffffff168273ffffffffffffffffffffffffffffffffffffffff161415610932576040517f08c379a0000000000000000000000000000000000000000000000000000000008152600401610929906132ac565b60405180910390fd5b600073ffffffffffffffffffffffffffffffffffffffff168273ffffffffffffffffffffffffffffffffffffffff1614156109a2576040517f08c379a00000000000000000000000000000000000000000000000000000000081526004016109999061330c565b60405180910390fd5b6001600e60008473ffffffffffffffffffffffffffffffffffffffff1673ffffffffffffffffffffffffffffffffffffffff16815260200190815260200160002060006101000a81548160ff02191690831515021790555060019050919050565b60055481565b600b5481565b6000600354905090565b600a60009054906101000a900460ff1681565b6000600660009054906101000a900473ffffffffffffffffffffffffffffffffffffffff1673ffffffffffffffffffffffffffffffffffffffff163373ffffffffffffffffffffffffffffffffffffffff161480610abc5750610a8d611211565b73ffffffffffffffffffffffffffffffffffffffff163373ffffffffffffffffffffffffffffffffffffffff16145b610ac557600080fd5b811515600a60019054906101000a900460ff1615151415610b1b576040517f08c379a0000000000000000000000000000000000000000000000000000000008152600401610b129061312c565b60405180910390fd5b81600a60016101000a81548160ff02191690831515021790555060019050919050565b6000610b4b848484611d46565b6000600f60008673ffffffffffffffffffffffffffffffffffffffff1673ffffffffffffffffffffffffffffffffffffffff1681526020019081526020016000206000610b96611b73565b73ffffffffffffffffffffffffffffffffffffffff1673ffffffffffffffffffffffffffffffffffffffff16815260200190815260200160002054905082811015610c16576040517f08c379a0000000000000000000000000000000000000000000000000000000008152600401610c0d9061322c565b60405180910390fd5b610c2a85610c22611b73565b858403611b7b565b60019150509392505050565b6000600660009054906101000a900473ffffffffffffffffffffffffffffffffffffffff1673ffffffffffffffffffffffffffffffffffffffff163373ffffffffffffffffffffffffffffffffffffffff161480610cc65750610c97611211565b73ffffffffffffffffffffffffffffffffffffffff163373ffffffffffffffffffffffffffffffffffffffff16145b610ccf57600080fd5b600083118015610cdf5750600483105b610d1e576040517f08c379a0000000000000000000000000000000000000000000000000000000008152600401610d15906130ec565b60405180910390fd5b600073ffffffffffffffffffffffffffffffffffffffff168273ffffffffffffffffffffffffffffffffffffffff161415610d8e576040517f08c379a0000000000000000000000000000000000000000000000000000000008152600401610d859061314c565b60405180910390fd5b6001831415610ddd5781600460006101000a81548173ffffffffffffffffffffffffffffffffffffffff021916908373ffffffffffffffffffffffffffffffffffffffff160217905550610e79565b6002831415610e2c5781600660006101000a81548173ffffffffffffffffffffffffffffffffffffffff021916908373ffffffffffffffffffffffffffffffffffffffff160217905550610e78565b6003831415610e775781600860006101000a81548173ffffffffffffffffffffffffffffffffffffffff021916908373ffffffffffffffffffffffffffffffffffffffff1602179055505b5b5b6001905092915050565b60006012905090565b6000610f2e610e99611b73565b8484600f6000610ea7611b73565b73ffffffffffffffffffffffffffffffffffffffff1673ffffffffffffffffffffffffffffffffffffffff16815260200190815260200160002060008873ffffffffffffffffffffffffffffffffffffffff1673ffffffffffffffffffffffffffffffffffffffff16815260200190815260200160002054610f29919061339e565b611b7b565b6001905092915050565b60035481565b60075481565b6000600660009054906101000a900473ffffffffffffffffffffffffffffffffffffffff1673ffffffffffffffffffffffffffffffffffffffff163373ffffffffffffffffffffffffffffffffffffffff161480610fd45750610fa5611211565b73ffffffffffffffffffffffffffffffffffffffff163373ffffffffffffffffffffffffffffffffffffffff16145b610fdd57600080fd5b3073ffffffffffffffffffffffffffffffffffffffff168273ffffffffffffffffffffffffffffffffffffffff16141561104c576040517f08c379a0000000000000000000000000000000000000000000000000000000008152600401611043906132ac565b60405180910390fd5b600073ffffffffffffffffffffffffffffffffffffffff168273ffffffffffffffffffffffffffffffffffffffff1614156110bc576040517f08c379a00000000000000000000000000000000000000000000000000000000081526004016110b39061330c565b60405180910390fd5b6001600e60008473ffffffffffffffffffffffffffffffffffffffff1673ffffffffffffffffffffffffffffffffffffffff16815260200190815260200160002060006101000a81548160ff02191690831515021790555060019050919050565b6000600c54905090565b6000600d60008373ffffffffffffffffffffffffffffffffffffffff1673ffffffffffffffffffffffffffffffffffffffff168152602001908152602001600020549050919050565b611178611b73565b73ffffffffffffffffffffffffffffffffffffffff16611196611211565b73ffffffffffffffffffffffffffffffffffffffff16146111ec576040517f08c379a00000000000000000000000000000000000000000000000000000000081526004016111e39061324c565b60405180910390fd5b6111f6600061261c565b565b600a60019054906101000a900460ff1681565b600c5481565b60008060009054906101000a900473ffffffffffffffffffffffffffffffffffffffff16905090565b600660009054906101000a900473ffffffffffffffffffffffffffffffffffffffff1681565b600860009054906101000a900473ffffffffffffffffffffffffffffffffffffffff1681565b6060600280546112959061353b565b80601f01602080910402602001604051908101604052809291908181526020018280546112c19061353b565b801561130e5780601f106112e35761010080835404028352916020019161130e565b820191906000526020600020905b8154815290600101906020018083116112f157829003601f168201915b5050505050905090565b6000600660009054906101000a900473ffffffffffffffffffffffffffffffffffffffff1673ffffffffffffffffffffffffffffffffffffffff163373ffffffffffffffffffffffffffffffffffffffff1614806113a85750611379611211565b73ffffffffffffffffffffffffffffffffffffffff163373ffffffffffffffffffffffffffffffffffffffff16145b6113b157600080fd5b60008210156113f5576040517f08c379a00000000000000000000000000000000000000000000000000000000081526004016113ec9061328c565b60405180910390fd5b81600b8190555060019050919050565b6000600660009054906101000a900473ffffffffffffffffffffffffffffffffffffffff1673ffffffffffffffffffffffffffffffffffffffff163373ffffffffffffffffffffffffffffffffffffffff1614806114955750611466611211565b73ffffffffffffffffffffffffffffffffffffffff163373ffffffffffffffffffffffffffffffffffffffff16145b61149e57600080fd5b6000831180156114ae5750600483105b6114ed576040517f08c379a00000000000000000000000000000000000000000000000000000000081526004016114e4906130ec565b60405180910390fd5b600082101580156114ff5750600a8211155b61153e576040517f08c379a00000000000000000000000000000000000000000000000000000000081526004016115359061326c565b60405180910390fd5b6001831415611553578160058190555061157b565b6002831415611568578160078190555061157a565b600383141561157957816009819055505b5b5b6001905092915050565b600080600f6000611594611b73565b73ffffffffffffffffffffffffffffffffffffffff1673ffffffffffffffffffffffffffffffffffffffff16815260200190815260200160002060008573ffffffffffffffffffffffffffffffffffffffff1673ffffffffffffffffffffffffffffffffffffffff16815260200190815260200160002054905082811015611651576040517f08c379a00000000000000000000000000000000000000000000000000000000081526004016116489061332c565b60405180910390fd5b61166561165c611b73565b85858403611b7b565b600191505092915050565b600061168461167d611b73565b8484611d46565b6001905092915050565b6002805461169b9061353b565b80601f01602080910402602001604051908101604052809291908181526020018280546116c79061353b565b80156117145780601f106116e957610100808354040283529160200191611714565b820191906000526020600020905b8154815290600101906020018083116116f757829003601f168201915b505050505081565b6000600b54905090565b60095481565b600180546117399061353b565b80601f01602080910402602001604051908101604052809291908181526020018280546117659061353b565b80156117b25780601f10611787576101008083540402835291602001916117b2565b820191906000526020600020905b81548152906001019060200180831161179557829003601f168201915b505050505081565b6000600f60008473ffffffffffffffffffffffffffffffffffffffff1673ffffffffffffffffffffffffffffffffffffffff16815260200190815260200160002060008373ffffffffffffffffffffffffffffffffffffffff1673ffffffffffffffffffffffffffffffffffffffff16815260200190815260200160002054905092915050565b6000600660009054906101000a900473ffffffffffffffffffffffffffffffffffffffff1673ffffffffffffffffffffffffffffffffffffffff163373ffffffffffffffffffffffffffffffffffffffff1614806118d157506118a2611211565b73ffffffffffffffffffffffffffffffffffffffff163373ffffffffffffffffffffffffffffffffffffffff16145b6118da57600080fd5b811515600a60009054906101000a900460ff1615151415611930576040517f08c379a00000000000000000000000000000000000000000000000000000000081526004016119279061312c565b60405180910390fd5b81600a60006101000a81548160ff02191690831515021790555060019050919050565b600460009054906101000a900473ffffffffffffffffffffffffffffffffffffffff1681565b6000600660009054906101000a900473ffffffffffffffffffffffffffffffffffffffff1673ffffffffffffffffffffffffffffffffffffffff163373ffffffffffffffffffffffffffffffffffffffff161480611a0957506119da611211565b73ffffffffffffffffffffffffffffffffffffffff163373ffffffffffffffffffffffffffffffffffffffff16145b611a1257600080fd5b60008211611a55576040517f08c379a0000000000000000000000000000000000000000000000000000000008152600401611a4c906131cc565b60405180910390fd5b81600c8190555060019050919050565b611a6d611b73565b73ffffffffffffffffffffffffffffffffffffffff16611a8b611211565b73ffffffffffffffffffffffffffffffffffffffff1614611ae1576040517f08c379a0000000000000000000000000000000000000000000000000000000008152600401611ad89061324c565b60405180910390fd5b600073ffffffffffffffffffffffffffffffffffffffff168173ffffffffffffffffffffffffffffffffffffffff161415611b51576040517f08c379a0000000000000000000000000000000000000000000000000000000008152600401611b489061316c565b60405180910390fd5b611b5a8161261c565b50565b60008183611b6b919061339e565b905092915050565b600033905090565b600073ffffffffffffffffffffffffffffffffffffffff168373ffffffffffffffffffffffffffffffffffffffff161415611beb576040517f08c379a0000000000000000000000000000000000000000000000000000000008152600401611be2906132ec565b60405180910390fd5b600073ffffffffffffffffffffffffffffffffffffffff168273ffffffffffffffffffffffffffffffffffffffff161415611c5b576040517f08c379a0000000000000000000000000000000000000000000000000000000008152600401611c529061318c565b60405180910390fd5b80600f60008573ffffffffffffffffffffffffffffffffffffffff1673ffffffffffffffffffffffffffffffffffffffff16815260200190815260200160002060008473ffffffffffffffffffffffffffffffffffffffff1673ffffffffffffffffffffffffffffffffffffffff168152602001908152602001600020819055508173ffffffffffffffffffffffffffffffffffffffff168373ffffffffffffffffffffffffffffffffffffffff167f8c5be1e5ebec7d5bd14f71427d1e84f3dd0314c0f7b2291e5b200ac8c7c3b92583604051611d39919061334c565b60405180910390a3505050565b600073ffffffffffffffffffffffffffffffffffffffff168373ffffffffffffffffffffffffffffffffffffffff161415611db6576040517f08c379a0000000000000000000000000000000000000000000000000000000008152600401611dad906132cc565b60405180910390fd5b600073ffffffffffffffffffffffffffffffffffffffff168273ffffffffffffffffffffffffffffffffffffffff161415611e26576040517f08c379a0000000000000000000000000000000000000000000000000000000008152600401611e1d9061310c565b60405180910390fd5b6000600d60008573ffffffffffffffffffffffffffffffffffffffff1673ffffffffffffffffffffffffffffffffffffffff16815260200190815260200160002054905081811015611ead576040517f08c379a0000000000000000000000000000000000000000000000000000000008152600401611ea49061320c565b60405180910390fd5b600a60019054906101000a900460ff1615611f9757600c54821115611f07576040517f08c379a0000000000000000000000000000000000000000000000000000000008152600401611efe906131ac565b60405180910390fd5b600b5482600d60008673ffffffffffffffffffffffffffffffffffffffff1673ffffffffffffffffffffffffffffffffffffffff16815260200190815260200160002054611f55919061339e565b1115611f96576040517f08c379a0000000000000000000000000000000000000000000000000000000008152600401611f8d906131ec565b60405180910390fd5b5b600e60008573ffffffffffffffffffffffffffffffffffffffff1673ffffffffffffffffffffffffffffffffffffffff16815260200190815260200160002060009054906101000a900460ff1680611ffc5750600a60009054906101000a900460ff16155b156121955761205382600d60008773ffffffffffffffffffffffffffffffffffffffff1673ffffffffffffffffffffffffffffffffffffffff168152602001908152602001600020546126e090919063ffffffff16565b600d60008673ffffffffffffffffffffffffffffffffffffffff1673ffffffffffffffffffffffffffffffffffffffff168152602001908152602001600020819055506120e882600d60008673ffffffffffffffffffffffffffffffffffffffff1673ffffffffffffffffffffffffffffffffffffffff16815260200190815260200160002054611b5d90919063ffffffff16565b600d60008573ffffffffffffffffffffffffffffffffffffffff1673ffffffffffffffffffffffffffffffffffffffff168152602001908152602001600020819055508273ffffffffffffffffffffffffffffffffffffffff168473ffffffffffffffffffffffffffffffffffffffff167fddf252ad1be2c89b69c2b068fc378daa952ba7f163c4a11628f55a4df523b3ef84604051612188919061334c565b60405180910390a3612616565b60006121a0836126f6565b905060006121ad8461272c565b905060006121ba85612762565b905060006121f5826121e7856121d9888b6126e090919063ffffffff16565b6126e090919063ffffffff16565b6126e090919063ffffffff16565b905061224986600d60008b73ffffffffffffffffffffffffffffffffffffffff1673ffffffffffffffffffffffffffffffffffffffff168152602001908152602001600020546126e090919063ffffffff16565b600d60008a73ffffffffffffffffffffffffffffffffffffffff1673ffffffffffffffffffffffffffffffffffffffff168152602001908152602001600020819055506122de81600d60008a73ffffffffffffffffffffffffffffffffffffffff1673ffffffffffffffffffffffffffffffffffffffff16815260200190815260200160002054611b5d90919063ffffffff16565b600d60008973ffffffffffffffffffffffffffffffffffffffff1673ffffffffffffffffffffffffffffffffffffffff1681526020019081526020016000208190555061239584600d6000600460009054906101000a900473ffffffffffffffffffffffffffffffffffffffff1673ffffffffffffffffffffffffffffffffffffffff1673ffffffffffffffffffffffffffffffffffffffff16815260200190815260200160002054611b5d90919063ffffffff16565b600d6000600460009054906101000a900473ffffffffffffffffffffffffffffffffffffffff1673ffffffffffffffffffffffffffffffffffffffff1673ffffffffffffffffffffffffffffffffffffffff1681526020019081526020016000208190555061246e83600d6000600660009054906101000a900473ffffffffffffffffffffffffffffffffffffffff1673ffffffffffffffffffffffffffffffffffffffff1673ffffffffffffffffffffffffffffffffffffffff16815260200190815260200160002054611b5d90919063ffffffff16565b600d6000600660009054906101000a900473ffffffffffffffffffffffffffffffffffffffff1673ffffffffffffffffffffffffffffffffffffffff1673ffffffffffffffffffffffffffffffffffffffff1681526020019081526020016000208190555061254782600d6000600860009054906101000a900473ffffffffffffffffffffffffffffffffffffffff1673ffffffffffffffffffffffffffffffffffffffff1673ffffffffffffffffffffffffffffffffffffffff16815260200190815260200160002054611b5d90919063ffffffff16565b600d6000600860009054906101000a900473ffffffffffffffffffffffffffffffffffffffff1673ffffffffffffffffffffffffffffffffffffffff1673ffffffffffffffffffffffffffffffffffffffff168152602001908152602001600020819055508673ffffffffffffffffffffffffffffffffffffffff168873ffffffffffffffffffffffffffffffffffffffff167fddf252ad1be2c89b69c2b068fc378daa952ba7f163c4a11628f55a4df523b3ef83604051612609919061334c565b60405180910390a3505050505b50505050565b60008060009054906101000a900473ffffffffffffffffffffffffffffffffffffffff169050816000806101000a81548173ffffffffffffffffffffffffffffffffffffffff021916908373ffffffffffffffffffffffffffffffffffffffff1602179055508173ffffffffffffffffffffffffffffffffffffffff168173ffffffffffffffffffffffffffffffffffffffff167f8be0079c531659141344cd1fd0a4f28419497f9722a3daafe3b4186f6b6457e060405160405180910390a35050565b600081836126ee919061347f565b905092915050565b60008061272160055461271360648661279890919063ffffffff16565b6127ae90919063ffffffff16565b905080915050919050565b60008061275760075461274960648661279890919063ffffffff16565b6127ae90919063ffffffff16565b905080915050919050565b60008061278d60095461277f60648661279890919063ffffffff16565b6127ae90919063ffffffff16565b905080915050919050565b600081836127a691906133f4565b905092915050565b600081836127bc9190613425565b905092915050565b6000813590506127d38161360b565b92915050565b6000813590506127e881613622565b92915050565b6000813590506127fd81613639565b92915050565b60006020828403121561281557600080fd5b6000612823848285016127c4565b91505092915050565b6000806040838503121561283f57600080fd5b600061284d858286016127c4565b925050602061285e858286016127c4565b9150509250929050565b60008060006060848603121561287d57600080fd5b600061288b868287016127c4565b935050602061289c868287016127c4565b92505060406128ad868287016127ee565b9150509250925092565b600080604083850312156128ca57600080fd5b60006128d8858286016127c4565b92505060206128e9858286016127ee565b9150509250929050565b60006020828403121561290557600080fd5b6000612913848285016127d9565b91505092915050565b60006020828403121561292e57600080fd5b600061293c848285016127ee565b91505092915050565b6000806040838503121561295857600080fd5b6000612966858286016127ee565b9250506020612977858286016127c4565b9150509250929050565b6000806040838503121561299457600080fd5b60006129a2858286016127ee565b92505060206129b3858286016127ee565b9150509250929050565b6129c6816134b3565b82525050565b6129d5816134c5565b82525050565b60006129e682613382565b6129f0818561338d565b9350612a00818560208601613508565b612a09816135fa565b840191505092915050565b6000612a2160158361338d565b91507f506f736974696f6e206973206e6f742076616c696400000000000000000000006000830152602082019050919050565b6000612a6160238361338d565b91507f45524332303a207472616e7366657220746f20746865207a65726f206164647260008301527f65737300000000000000000000000000000000000000000000000000000000006020830152604082019050919050565b6000612ac760158361338d565b91507f73746174757320697320616c72656164792073657400000000000000000000006000830152602082019050919050565b6000612b0760148361338d565b91507f41646472657373206973206e6f742076616c69640000000000000000000000006000830152602082019050919050565b6000612b4760268361338d565b91507f4f776e61626c653a206e6577206f776e657220697320746865207a65726f206160008301527f64647265737300000000000000000000000000000000000000000000000000006020830152604082019050919050565b6000612bad60228361338d565b91507f45524332303a20617070726f766520746f20746865207a65726f20616464726560008301527f73730000000000000000000000000000000000000000000000000000000000006020830152604082019050919050565b6000612c1360188361338d565b91507f416d6f756e74206578636565647320746865206c696d697400000000000000006000830152602082019050919050565b6000612c53601c8361338d565b91507f4d617820747820616d6f756e742063616e6e6f74206265207a65726f000000006000830152602082019050919050565b6000612c9360228361338d565b91507f416d6f756e74206578636565647320746865206c696d6974206f662077616c6c60008301527f65740000000000000000000000000000000000000000000000000000000000006020830152604082019050919050565b6000612cf960268361338d565b91507f45524332303a207472616e7366657220616d6f756e742065786365656473206260008301527f616c616e636500000000000000000000000000000000000000000000000000006020830152604082019050919050565b6000612d5f60288361338d565b91507f45524332303a207472616e7366657220616d6f756e742065786365656473206160008301527f6c6c6f77616e63650000000000000000000000000000000000000000000000006020830152604082019050919050565b6000612dc560208361338d565b91507f4f776e61626c653a2063616c6c6572206973206e6f7420746865206f776e65726000830152602082019050919050565b6000612e0560148361338d565b91507f54686520666565206973206e6f742076616c69640000000000000000000000006000830152602082019050919050565b6000612e45602a8361338d565b91507f6e65774d6178546f6b656e466f7257616c6c65742063616e6e6f74206265206c60008301527f657373207468616e2030000000000000000000000000000000000000000000006020830152604082019050919050565b6000612eab60238361338d565b91507f6578636c756465416464722063616e6e6f74206265207468697320636f6e747260008301527f61637400000000000000000000000000000000000000000000000000000000006020830152604082019050919050565b6000612f1160258361338d565b91507f45524332303a207472616e736665722066726f6d20746865207a65726f20616460008301527f64726573730000000000000000000000000000000000000000000000000000006020830152604082019050919050565b6000612f7760248361338d565b91507f45524332303a20617070726f76652066726f6d20746865207a65726f2061646460008301527f72657373000000000000000000000000000000000000000000000000000000006020830152604082019050919050565b6000612fdd60188361338d565b91507f6578636c75646541646472206973206e6f742076616c696400000000000000006000830152602082019050919050565b600061301d60258361338d565b91507f45524332303a2064656372656173656420616c6c6f77616e63652062656c6f7760008301527f207a65726f0000000000000000000000000000000000000000000000000000006020830152604082019050919050565b61307f816134f1565b82525050565b61308e816134fb565b82525050565b60006020820190506130a960008301846129bd565b92915050565b60006020820190506130c460008301846129cc565b92915050565b600060208201905081810360008301526130e481846129db565b905092915050565b6000602082019050818103600083015261310581612a14565b9050919050565b6000602082019050818103600083015261312581612a54565b9050919050565b6000602082019050818103600083015261314581612aba565b9050919050565b6000602082019050818103600083015261316581612afa565b9050919050565b6000602082019050818103600083015261318581612b3a565b9050919050565b600060208201905081810360008301526131a581612ba0565b9050919050565b600060208201905081810360008301526131c581612c06565b9050919050565b600060208201905081810360008301526131e581612c46565b9050919050565b6000602082019050818103600083015261320581612c86565b9050919050565b6000602082019050818103600083015261322581612cec565b9050919050565b6000602082019050818103600083015261324581612d52565b9050919050565b6000602082019050818103600083015261326581612db8565b9050919050565b6000602082019050818103600083015261328581612df8565b9050919050565b600060208201905081810360008301526132a581612e38565b9050919050565b600060208201905081810360008301526132c581612e9e565b9050919050565b600060208201905081810360008301526132e581612f04565b9050919050565b6000602082019050818103600083015261330581612f6a565b9050919050565b6000602082019050818103600083015261332581612fd0565b9050919050565b6000602082019050818103600083015261334581613010565b9050919050565b60006020820190506133616000830184613076565b92915050565b600060208201905061337c6000830184613085565b92915050565b600081519050919050565b600082825260208201905092915050565b60006133a9826134f1565b91506133b4836134f1565b9250827fffffffffffffffffffffffffffffffffffffffffffffffffffffffffffffffff038211156133e9576133e861356d565b5b828201905092915050565b60006133ff826134f1565b915061340a836134f1565b92508261341a5761341961359c565b5b828204905092915050565b6000613430826134f1565b915061343b836134f1565b9250817fffffffffffffffffffffffffffffffffffffffffffffffffffffffffffffffff04831182151516156134745761347361356d565b5b828202905092915050565b600061348a826134f1565b9150613495836134f1565b9250828210156134a8576134a761356d565b5b828203905092915050565b60006134be826134d1565b9050919050565b60008115159050919050565b600073ffffffffffffffffffffffffffffffffffffffff82169050919050565b6000819050919050565b600060ff82169050919050565b60005b8381101561352657808201518184015260208101905061350b565b83811115613535576000848401525b50505050565b6000600282049050600182168061355357607f821691505b60208210811415613567576135666135cb565b5b50919050565b7f4e487b7100000000000000000000000000000000000000000000000000000000600052601160045260246000fd5b7f4e487b7100000000000000000000000000000000000000000000000000000000600052601260045260246000fd5b7f4e487b7100000000000000000000000000000000000000000000000000000000600052602260045260246000fd5b6000601f19601f8301169050919050565b613614816134b3565b811461361f57600080fd5b50565b61362b816134c5565b811461363657600080fd5b50565b613642816134f1565b811461364d57600080fd5b5056fea26469706673582212201321520d2f50e5d8626b749cc598d84dd92530c7f5f3e1b0a6667ac5212dae6f64736f6c63430008000033",
  "immutableReferences": {},
  "source": "//SPDX-License-Identifier: MIT\npragma solidity ^0.8.0;\n\nimport \"../node_modules/@openzeppelin/contracts/token/ERC20/IERC20.sol\";\nimport \"../node_modules/@openzeppelin/contracts/utils/Address.sol\";\nimport \"../node_modules/@openzeppelin/contracts/utils/Context.sol\";\nimport \"../node_modules/@openzeppelin/contracts/utils/math/SafeMath.sol\";\nimport \"../node_modules/@openzeppelin/contracts/access/Ownable.sol\";\n\n\ncontract BTEMCoin is IERC20, Ownable{\n    using SafeMath for uint256;\n    using Address for address;\n\n    string public _name = \"Besteam Coin\";\n    string public _symbol = \"BTEM\";\n    uint256 public _totalSupply;\n\n    address public marketWallet = 0xA1B75255829de9BCaE5de27ad449ddaa5dAB798C;\n    uint256 public marketFee = 4;\n\n    address public devWallet = 0x03eDE84E062aB58df13bD73Ac550B1473A38F26c;\n    uint256 public devFee = 6;\n\n    address public LPWallet = 0xF6d351EB65944369eC419560689049D68f53eA8a;\n    uint256 public LPFee = 2;\n\n    bool public takeFee;\n    bool public limited;\n    uint256 public maxTokensForWallet; \n    uint256 public maxTxAmount; \n\n    mapping(address => uint256) private _balances;\n    mapping(address => bool) private _isExcludedFromFee;\n    mapping(address => mapping (address => uint256)) private _allowances;\n\n    modifier withGrant(){\n        require(msg.sender == devWallet || msg.sender == owner());\n        _;\n    }\n\n    constructor()\n    Ownable()\n    {\n        _mint(msg.sender, 100000000 * 10 ** 18);\n        _isExcludedFromFee[msg.sender] = true;\n        _isExcludedFromFee[address(this)] = true;\n        takeFee = false;\n        limited = false;\n        maxTxAmount = 10000000 * 10 ** 18;\n        maxTokensForWallet = 10000 * 10 ** 18;\n    }\n\n\n    /**\n     * @dev Returns the name of the token.\n     */\n    function name() public view virtual returns (string memory) {\n        return _name;\n    }\n\n\n    /**\n     * @dev Returns the symbol of the token, usually a shorter version of the\n     * name.\n     */\n    function symbol() public view virtual returns (string memory) {\n        return _symbol;\n    }\n\n    \n    /**\n     * @dev Returns the decimals of the token\n     */\n    function decimals() public view virtual returns (uint8) {\n        return 18;\n    }\n\n    \n    /**\n     * @dev Returns the total supply of the contract\n     */\n    function totalSupply() public view override returns (uint256) {\n        return _totalSupply;\n    }\n    \n    \n    /**\n     * @dev Returns the balance of a specific account\n     */\n    function balanceOf(address account) public view override returns (uint256) {\n        return _balances[account];\n    }\n\n    \n    /**\n     * @dev Transfer amount of token from msg.sender to the recipient\n     */\n    function transfer(address recipient, uint256 amount) public override returns (bool) {\n        _transfer(_msgSender(), recipient, amount);\n        return true;\n    }\n\n\n    function allowance(address owner, address spender) public view override returns (uint256) {\n        return _allowances[owner][spender];\n    }\n\n    \n    function approve(address spender, uint256 amount) public override returns (bool) {\n        _approve(_msgSender(), spender, amount);\n        return true;\n    }\n    \n    \n    /**\n     * @dev Change wallet addres by a specific position\n     * @param pos of wallet\n     * @param newAddress of the wallet\n     */\n    function changeWalletAddress(uint256 pos, address newAddress) public withGrant returns(bool){\n        require(pos > 0 && pos < 4, \"Position is not valid\");\n        require(newAddress != address(0x0), \"Address is not valid\");\n        \n        if(pos == 1){\n            marketWallet = newAddress;\n        }else if(pos == 2){\n            devWallet = newAddress;\n        }else if(pos == 3){\n            LPWallet = newAddress;\n        }\n        return true;\n    }\n    \n    \n    /** \n     * @dev Changes fee of a specific wallet\n     * @param pos of wallet\n     * @param updatedFee for walle\n     */\n    function changeFeeOfWallet(uint256 pos, uint256 updatedFee) public withGrant returns(bool){\n        require(pos > 0 && pos < 4, \"Position is not valid\");\n        require(updatedFee >= 0 && updatedFee <= 10, \"The fee is not valid\");\n        \n        if(pos == 1){\n            marketFee = updatedFee;\n        }else if(pos == 2){\n            devFee = updatedFee;\n        }else if(pos == 3){\n            LPFee = updatedFee;\n        }\n        return true;\n    }\n\n\n    /**\n     * @dev Excludes a specific address from fees\n     * @param excludeAddr address to be excluded\n    */\n    function excludeAddrFromFee(address excludeAddr) public withGrant returns(bool){\n        require(excludeAddr != address(this), \"excludeAddr cannot be this contract\");\n        require(excludeAddr != address(0x0), \"excludeAddr is not valid\");\n\n        _isExcludedFromFee[excludeAddr] = true;\n        return true;\n    }\n\n\n    /**\n     * @dev Includes a specific address with fees\n     * @param includeAddr address to be included\n    */\n    function includeAddrFromFee(address includeAddr) public withGrant returns(bool){\n        require(includeAddr != address(this), \"excludeAddr cannot be this contract\");\n        require(includeAddr != address(0x0), \"excludeAddr is not valid\");\n\n        _isExcludedFromFee[includeAddr] = true;\n        return true;\n    }\n    \n    \n    /**\n     * @dev Returns maximum transation amount\n     */\n    function getMaxTxAmount() public view returns(uint256) {\n        return maxTxAmount;\n    }\n    \n    \n    /**\n     * @dev Sets a new maximum transaction amount\n     * @param _maxAmount of tokens\n     */\n    function setMaxTxAmount(uint256 _maxAmount) public withGrant returns(bool){\n        require(_maxAmount > 0, \"Max tx amount cannot be zero\");\n\n        maxTxAmount = _maxAmount;\n        return true;\n    }\n    \n    \n    /**\n     * @dev Returns maximum number of tokens for wallet\n     */\n    function getMaxTokensForWallet() public view returns(uint256){\n        return maxTokensForWallet;\n    }\n    \n    \n    /**\n     * @dev Sets a new maximum number of tokens for wallet\n     * @param newMaxTokenForWallet number of token\n     */\n    function setMaxTokensForWallet(uint256 newMaxTokenForWallet) public withGrant returns(bool){\n        require(newMaxTokenForWallet >= 0, \"newMaxTokenForWallet cannot be less than 0\");\n        \n        maxTokensForWallet = newMaxTokenForWallet;\n        return true;\n    }\n\n    \n    /**\n     * @dev Sets takeFee flag with the given status    \n     * @param status boolean flag\n     */\n    function setTakeFee(bool status) public withGrant returns(bool){\n        require(takeFee != status, \"status is already set\");\n        takeFee = status;\n        return true;\n    }\n\n\n    /**\n     * @dev Sets limited flag with the given status    \n     * @param status boolean flag\n     */\n    function setLimited(bool status) public withGrant returns(bool){\n        require(limited != status, \"status is already set\");\n        limited = status;\n        return true;\n    }\n\n    \n    function transferFrom(\n        address sender,\n        address recipient,\n        uint256 amount\n    ) public override returns (bool) {\n        _transfer(sender, recipient, amount);\n\n        uint256 currentAllowance = _allowances[sender][_msgSender()];\n        require(currentAllowance >= amount, \"ERC20: transfer amount exceeds allowance\");\n        unchecked {\n            _approve(sender, _msgSender(), currentAllowance - amount);\n        }\n\n        return true;\n    }\n\n    \n    function increaseAllowance(address spender, uint256 addedValue) public virtual returns (bool) {\n        _approve(_msgSender(), spender, _allowances[_msgSender()][spender] + addedValue);\n        return true;\n    }\n\n    \n    function decreaseAllowance(address spender, uint256 subtractedValue) public virtual returns (bool) {\n        uint256 currentAllowance = _allowances[_msgSender()][spender];\n        require(currentAllowance >= subtractedValue, \"ERC20: decreased allowance below zero\");\n        unchecked {\n            _approve(_msgSender(), spender, currentAllowance - subtractedValue);\n        }\n\n        return true;\n    }\n\n    \n    function _transfer(\n        address sender,\n        address recipient,\n        uint256 amount\n    ) internal {\n        require(sender != address(0), \"ERC20: transfer from the zero address\");\n        require(recipient != address(0), \"ERC20: transfer to the zero address\");\n\n        uint256 senderBalance = _balances[sender];\n        require(senderBalance >= amount, \"ERC20: transfer amount exceeds balance\");\n\n        if(limited){\n            require(amount <= maxTxAmount, \"Amount exceeds the limit\");\n            require(_balances[recipient] + amount <= maxTokensForWallet, \"Amount exceeds the limit of wallet\");\n        }\n\n        if(_isExcludedFromFee[sender] || !takeFee){\n            _balances[sender] = _balances[sender].sub(amount);\n            _balances[recipient] = _balances[recipient].add(amount);\n            emit Transfer(sender, recipient, amount);\n        }else{\n            uint256 calculatedMarketFee = calculateMarketFee(amount);\n            uint256 calculatedDevFee = calculateDevFee(amount);\n            uint256 calculatedLPFee = calculateLPFee(amount);\n            uint256 amountWithFee = amount.sub(calculatedMarketFee).sub(calculatedDevFee).sub(calculatedLPFee);\n\n            _balances[sender] = _balances[sender].sub(amount);\n            _balances[recipient] = _balances[recipient].add(amountWithFee);\n            _balances[marketWallet] = _balances[marketWallet].add(calculatedMarketFee);\n            _balances[devWallet] = _balances[devWallet].add(calculatedDevFee);\n            _balances[LPWallet] = _balances[LPWallet].add(calculatedLPFee);\n\n            emit Transfer(sender, recipient, amountWithFee); \n        }\n    }\n\n    \n    /**\n     * @dev Calculates and returns fee of Marketing\n     * @param amount of transaction\n     */\n    function calculateMarketFee(uint256 amount) internal view returns(uint256){\n        uint256 marketFeeValue = amount.div(100).mul(marketFee);\n        return marketFeeValue;\n    }\n\n\n    /**\n     * @dev Calculates and returns fee of Development\n     * @param amount of transaction\n     */\n    function calculateDevFee(uint256 amount) internal view returns(uint256){\n        uint256 developmentFeeValue = amount.div(100).mul(devFee);\n        return developmentFeeValue;\n    }\n\n\n    /**\n     * @dev Calculates and returns fee of LP\n     * @param amount of transaction\n     */\n    function calculateLPFee(uint256 amount) internal view returns(uint256){\n        uint256 LPFeeValue = amount.div(100).mul(LPFee);\n        return LPFeeValue;\n    }\n\n    \n    function _mint(address account, uint256 amount) internal {\n        require(account != address(0), \"ERC20: mint to the zero address\");\n\n        //_beforeTokenTransfer(address(0), account, amount);\n\n        _totalSupply = _totalSupply.add(amount);\n        _balances[account] = _balances[account].add(amount);\n        emit Transfer(address(0), account, amount);\n\n        //_afterTokenTransfer(address(0), account, amount);\n    }\n\n    \n    function _burn(address account, uint256 amount) internal {\n        require(account != address(0), \"ERC20: burn from the zero address\");\n\n        //_beforeTokenTransfer(account, address(0), amount);\n\n        uint256 accountBalance = _balances[account];\n        require(accountBalance >= amount, \"ERC20: burn amount exceeds balance\");\n        unchecked {\n            _balances[account] = accountBalance - amount;\n        }\n        _totalSupply -= amount;\n\n        emit Transfer(account, address(0), amount);\n\n        //_afterTokenTransfer(account, address(0), amount);\n    }\n\n    \n    function _approve(\n        address owner,\n        address spender,\n        uint256 amount\n    ) internal {\n        require(owner != address(0), \"ERC20: approve from the zero address\");\n        require(spender != address(0), \"ERC20: approve to the zero address\");\n\n        _allowances[owner][spender] = amount;\n        emit Approval(owner, spender, amount);\n    }\n}",
  "sourcePath": "/home/giacomo/Scrivania/lavoro/NFT_Calcio_Enrico_Coviello/contracts/BTEMCoin.sol",
  "compiler": {
    "name": "solc",
    "version": "0.8.0+commit.c7dfd78e.Emscripten.clang"
  },
  "schemaVersion": "3.3.4",
  "updatedAt": "2021-12-06T10:41:26.386Z",
  "devdoc": {
    "kind": "dev",
    "methods": {
      "allowance(address,address)": {
        "details": "Returns the remaining number of tokens that `spender` will be allowed to spend on behalf of `owner` through {transferFrom}. This is zero by default. This value changes when {approve} or {transferFrom} are called."
      },
      "approve(address,uint256)": {
        "details": "Sets `amount` as the allowance of `spender` over the caller's tokens. Returns a boolean value indicating whether the operation succeeded. IMPORTANT: Beware that changing an allowance with this method brings the risk that someone may use both the old and the new allowance by unfortunate transaction ordering. One possible solution to mitigate this race condition is to first reduce the spender's allowance to 0 and set the desired value afterwards: https://github.com/ethereum/EIPs/issues/20#issuecomment-263524729 Emits an {Approval} event."
      },
      "balanceOf(address)": {
        "details": "Returns the balance of a specific account"
      },
      "changeFeeOfWallet(uint256,uint256)": {
        "details": "Changes fee of a specific wallet",
        "params": {
          "pos": "of wallet",
          "updatedFee": "for walle"
        }
      },
      "changeWalletAddress(uint256,address)": {
        "details": "Change wallet addres by a specific position",
        "params": {
          "newAddress": "of the wallet",
          "pos": "of wallet"
        }
      },
      "decimals()": {
        "details": "Returns the decimals of the token"
      },
      "excludeAddrFromFee(address)": {
        "details": "Excludes a specific address from fees",
        "params": {
          "excludeAddr": "address to be excluded"
        }
      },
      "getMaxTokensForWallet()": {
        "details": "Returns maximum number of tokens for wallet"
      },
      "getMaxTxAmount()": {
        "details": "Returns maximum transation amount"
      },
      "includeAddrFromFee(address)": {
        "details": "Includes a specific address with fees",
        "params": {
          "includeAddr": "address to be included"
        }
      },
      "name()": {
        "details": "Returns the name of the token."
      },
      "owner()": {
        "details": "Returns the address of the current owner."
      },
      "renounceOwnership()": {
        "details": "Leaves the contract without owner. It will not be possible to call `onlyOwner` functions anymore. Can only be called by the current owner. NOTE: Renouncing ownership will leave the contract without an owner, thereby removing any functionality that is only available to the owner."
      },
      "setLimited(bool)": {
        "details": "Sets limited flag with the given status    ",
        "params": {
          "status": "boolean flag"
        }
      },
      "setMaxTokensForWallet(uint256)": {
        "details": "Sets a new maximum number of tokens for wallet",
        "params": {
          "newMaxTokenForWallet": "number of token"
        }
      },
      "setMaxTxAmount(uint256)": {
        "details": "Sets a new maximum transaction amount",
        "params": {
          "_maxAmount": "of tokens"
        }
      },
      "setTakeFee(bool)": {
        "details": "Sets takeFee flag with the given status    ",
        "params": {
          "status": "boolean flag"
        }
      },
      "symbol()": {
        "details": "Returns the symbol of the token, usually a shorter version of the name."
      },
      "totalSupply()": {
        "details": "Returns the total supply of the contract"
      },
      "transfer(address,uint256)": {
        "details": "Transfer amount of token from msg.sender to the recipient"
      },
      "transferFrom(address,address,uint256)": {
        "details": "Moves `amount` tokens from `sender` to `recipient` using the allowance mechanism. `amount` is then deducted from the caller's allowance. Returns a boolean value indicating whether the operation succeeded. Emits a {Transfer} event."
      },
      "transferOwnership(address)": {
        "details": "Transfers ownership of the contract to a new account (`newOwner`). Can only be called by the current owner."
      }
    },
    "version": 1
  },
  "userdoc": {
    "kind": "user",
    "methods": {},
    "version": 1
  }
}