{
  "contractName": "WhitelistedRole",
  "abi": [
    {
      "inputs": [],
      "stateMutability": "nonpayable",
      "type": "constructor"
    },
    {
      "anonymous": false,
      "inputs": [
        {
          "indexed": true,
          "internalType": "address",
          "name": "account",
          "type": "address"
        }
      ],
      "name": "WhitelistedAdded",
      "type": "event"
    },
    {
      "anonymous": false,
      "inputs": [
        {
          "indexed": true,
          "internalType": "address",
          "name": "account",
          "type": "address"
        }
      ],
      "name": "WhitelistedRemoved",
      "type": "event"
    },
    {
      "inputs": [
        {
          "internalType": "address",
          "name": "account",
          "type": "address"
        }
      ],
      "name": "isWhitelisted",
      "outputs": [
        {
          "internalType": "bool",
          "name": "",
          "type": "bool"
        }
      ],
      "stateMutability": "view",
      "type": "function"
    },
    {
      "inputs": [
        {
          "internalType": "address",
          "name": "account",
          "type": "address"
        }
      ],
      "name": "addWhitelisted",
      "outputs": [],
      "stateMutability": "nonpayable",
      "type": "function"
    },
    {
      "inputs": [
        {
          "internalType": "address",
          "name": "account",
          "type": "address"
        }
      ],
      "name": "removeWhitelisted",
      "outputs": [],
      "stateMutability": "nonpayable",
      "type": "function"
    },
    {
      "inputs": [],
      "name": "renounceWhitelisted",
      "outputs": [],
      "stateMutability": "nonpayable",
      "type": "function"
    }
  ],
  "bytecode": "0x608060405234801561001057600080fd5b5061001f61006360201b60201c565b6000806101000a81548173ffffffffffffffffffffffffffffffffffffffff021916908373ffffffffffffffffffffffffffffffffffffffff16021790555061006b565b600033905090565b61050b8061007a6000396000f3fe608060405234801561001057600080fd5b506004361061004c5760003560e01c806310154bad14610051578063291d95491461006d5780633af32abf14610089578063d6cd9473146100b9575b600080fd5b61006b600480360381019061006691906103bc565b6100c3565b005b610087600480360381019061008291906103bc565b610164565b005b6100a3600480360381019061009e91906103bc565b610205565b6040516100b09190610434565b60405180910390f35b6100c161025b565b005b60008054906101000a900473ffffffffffffffffffffffffffffffffffffffff1673ffffffffffffffffffffffffffffffffffffffff1661010261026d565b73ffffffffffffffffffffffffffffffffffffffff1614610158576040517f08c379a000000000000000000000000000000000000000000000000000000000815260040161014f9061044f565b60405180910390fd5b61016181610275565b50565b60008054906101000a900473ffffffffffffffffffffffffffffffffffffffff1673ffffffffffffffffffffffffffffffffffffffff166101a361026d565b73ffffffffffffffffffffffffffffffffffffffff16146101f9576040517f08c379a00000000000000000000000000000000000000000000000000000000081526004016101f09061044f565b60405180910390fd5b61020281610312565b50565b6000600160008373ffffffffffffffffffffffffffffffffffffffff1673ffffffffffffffffffffffffffffffffffffffff16815260200190815260200160002060009054906101000a900460ff169050919050565b61026b61026661026d565b610312565b565b600033905090565b60018060008373ffffffffffffffffffffffffffffffffffffffff1673ffffffffffffffffffffffffffffffffffffffff16815260200190815260200160002060006101000a81548160ff0219169083151502179055508073ffffffffffffffffffffffffffffffffffffffff167fee1504a83b6d4a361f4c1dc78ab59bfa30d6a3b6612c403e86bb01ef2984295f60405160405180910390a250565b600160008273ffffffffffffffffffffffffffffffffffffffff1673ffffffffffffffffffffffffffffffffffffffff16815260200190815260200160002060006101000a81549060ff02191690558073ffffffffffffffffffffffffffffffffffffffff167f270d9b30cf5b0793bbfd54c9d5b94aeb49462b8148399000265144a8722da6b660405160405180910390a250565b6000813590506103b6816104be565b92915050565b6000602082840312156103ce57600080fd5b60006103dc848285016103a7565b91505092915050565b6103ee81610492565b82525050565b600061040160188361046f565b91507f6d73672e73656e646572206d7573742062652061646d696e00000000000000006000830152602082019050919050565b600060208201905061044960008301846103e5565b92915050565b60006020820190508181036000830152610468816103f4565b9050919050565b600082825260208201905092915050565b600061048b8261049e565b9050919050565b60008115159050919050565b600073ffffffffffffffffffffffffffffffffffffffff82169050919050565b6104c781610480565b81146104d257600080fd5b5056fea264697066735822122062d4206b9e32d993adae8f4cd2edbb17e2828ec35d429fa843deff902fdac36a64736f6c63430008000033",
  "immutableReferences": {},
  "source": "//SPDX-License-Identifier: MIT\npragma solidity ^0.8.0;\n\nimport \"../../node_modules/@openzeppelin/contracts/utils/Context.sol\";\n\ncontract WhitelistedRole is Context{\n    address private _whitelistedAdmin;\n\n    event WhitelistedAdded(address indexed account);\n    event WhitelistedRemoved(address indexed account);\n\n    mapping(address => bool) private _whitelisteds;\n\n    modifier onlyWhitelisted() {\n        require(isWhitelisted(_msgSender()), \"WhitelistedRole: caller does not have the Whitelisted role\");\n        _;\n    }\n\n    modifier onlyAdmin() {\n        require(_msgSender() == _whitelistedAdmin, \"msg.sender must be admin\");\n        _;\n    }\n\n    constructor(){\n        _whitelistedAdmin = _msgSender();\n    }\n\n    \n\n    function isWhitelisted(address account) public view returns (bool) {\n        return _whitelisteds[account];\n    }\n\n    function addWhitelisted(address account) public onlyAdmin {\n        _addWhitelisted(account);\n    }\n\n    function removeWhitelisted(address account) public onlyAdmin {\n        _removeWhitelisted(account);\n    }\n\n    function renounceWhitelisted() public {\n        _removeWhitelisted(_msgSender());\n    }\n\n    function _addWhitelisted(address account) internal {\n        _whitelisteds[account] = true;\n        emit WhitelistedAdded(account);\n    }\n\n    function _removeWhitelisted(address account) internal {\n        delete _whitelisteds[account];\n        emit WhitelistedRemoved(account);\n    }\n}",
  "sourcePath": "/home/giacomo/Scrivania/lavoro/NFT_Calcio_Enrico_Coviello/contracts/utils/WhitelistedRoles.sol",
  "compiler": {
    "name": "solc",
    "version": "0.8.0+commit.c7dfd78e.Emscripten.clang"
  },
  "schemaVersion": "3.3.4",
  "updatedAt": "2021-12-06T10:41:26.512Z",
  "devdoc": {
    "kind": "dev",
    "methods": {},
    "version": 1
  },
  "userdoc": {
    "kind": "user",
    "methods": {},
    "version": 1
  }
}